:020000040800F2
:1000000010160020C1010008D31E0008951D00082D
:10001000D11E0008F10200089B4300080000000008
:10002000000000000000000000000000E31E0008C7
:10003000ED03000800000000E11E0008E51E0008B6
:10004000DB010008DB010008DB010008DB01000820
:10005000DB010008DB010008DB010008DB01000810
:10006000DB010008DB010008DB010008DB01000800
:10007000DB010008DB010008DB010008DB010008F0
:10008000DB010008DB010008DB010008DB010008E0
:10009000DB010008DB010008DB010008DB010008D0
:1000A000DB010008DB010008DB010008DB010008C0
:1000B000DB010008DB010008DB010008DB010008B0
:1000C000DB010008DB010008DB010008DB010008A0
:1000D000DB010008B1240008DB010008DB01000897
:1000E000DB010008DB010008DB010008DB01000880
:1000F000DB010008DB010008DB010008DB01000870
:10010000DB010008DB010008DB010008DB0100085F
:10011000DB010008DB010008DB010008DB0100084F
:10012000DB010008DB010008F5020008DB01000824
:10013000DB010008DB010008DB010008DB0100082F
:10014000DB010008DB010008DB010008DB0100081F
:10015000DB010008DB010008DB010008DB0100080F
:10016000DB010008DB010008DB010008DB010008FF
:10017000DB010008D51E0008DB01000800000000BC
:10018000DB010008DB010008DB010008DB010008DF
:10019000DB010008DB010008DB010008DB010008CF
:1001A000DB010008DB010008DB010008DFF80CD0F0
:1001B00000F08CF800480047A158000810160020F5
:1001C0000648804706480047FEE7FEE7FEE7FEE7F1
:1001D000FEE7FEE7FEE7FEE7FEE7FEE7851F000815
:1001E000AD0100082DE9F05F0546002092469B46D0
:1001F00088460646814640241BE02846414647463D
:10020000224600F053F853465A46C01A914110D383
:1002100011461846224600F03AF82D1A67EB0108FD
:100220004F4622460120002100F031F817EB00096B
:100230004E41201EA4F10104DFDC484631462A4627
:100240004346BDE8F09F40EA01039B0703D009E065
:1002500008C9121F08C0042AFAD203E011F8013BB2
:1002600000F8013B521EF9D27047D2B201E000F80B
:10027000012B491EFBD270470022F6E710B513464A
:100280000A4604461946FFF7F0FF204610BD202A13
:1002900004DB203A00FA02F1002070479140C2F1DD
:1002A000200320FA03F3194390407047202A04DB0F
:1002B000203A21FA02F00021704721FA02F3D040DF
:1002C000C2F120029140084319467047064C074D81
:1002D00006E0E06840F0010394E807009847103416
:1002E000AC42F6D3FFF766FF4C0903086C0903081C
:1002F000FEE70000014800F001B90000F40800200A
:1003000001681823CAB2103AB2FBF3F2054B6FF33F
:100310000901032A9B5CC36500D9091D8165084654
:1003200070470000485D000810B5014600208B6949
:100330008A6A4FF0C07453B1B3F5005F15D072B143
:10034000012A0CD0022A0AD0032A09D104E01AB1EA
:10035000012A06D0022A03D1C96AC90100D50120A9
:1003600010BDC96AA142FAD010BD002AF7D0012AF7
:10037000F2D0022AF3D0032AF3D010BD30B50468BE
:10038000256825F480252560046863608368402B18
:10039000036803D099600068C26030BD9A6000684D
:1003A000C16030BD10B500224FEA020100EB8203AC
:1003B000521CC3F880130F2AF8D300224FF40073A5
:1003C0008418521C84F81C119A42F9D301704170B0
:1003D00001228270C0F8BC130276402383714176FB
:1003E00080F81C1380F81D23002010BD704700000A
:1003F00001A003F0D3BF00006572722121210A0021
:10040000002200F001B8000030B50E4B0546012077
:100410005C7A002C14D1587A1C54587A03EB800073
:1004200045605D7A03F108002A54587A421C5A72DA
:10043000303008703A2048702F208870CC7000202F
:1004400030BD0000041000202DE9F0410446876D06
:1004500000F0C8FA064694F835000025022806D0B8
:100460008020606584F834500120BDE8F081206868
:10047000016821F0160101602068416921F08001C6
:100480004161206C08B9A06C20B12068016821F09E
:10049000080101602068016821F0010101600BE0A2
:1004A00000F0A0FA801B052806D92020606504F81A
:1004B000345F03206070D8E720680068C007EFD180
:1004C00094F85C103F208840B86004F8345F012045
:1004D00060700020C9E790F83510022903D0802110
:1004E000416501207047052180F8351000680168DA
:1004F00021F0010101600020704700002DE9F84360
:1005000004464FF00009CDF8009063484FF41651AF
:10051000A56D0068B0FBF1F72E6894F85C10082018
:1005200000FA01F131420FD021680A6852070BD559
:100530000A6822F004020A6094F85C108840A860FF
:10054000606D40F00100606594F85C104FF00108A8
:1005500008FA01F0304208D021684969090604D53B
:10056000A860606D40F00200606594F85C100420A3
:100570008840304208D021680968890704D5A860FE
:10058000606D40F00400606594F85C1010208840B5
:10059000304218D021680968090714D5A86020687E
:1005A0000168490304D50068000308D5A16C07E081
:1005B0000168C90503D4016821F008010160216CBC
:1005C00009B12046884794F85C10202088403042CA
:1005D00031D021680968C9062DD5A86094F8350086
:1005E00005282068016806D0490347D50068000344
:1005F0001DD4616C1CE021F0160101602068416986
:1006000021F080014161206C08B9A06C20B1206804
:10061000016821F00801016094F85C103F208840D7
:10062000A86084F8349084F83580216D1FE0E16B78
:1006300009B120468847606D00282BD0606DC00747
:1006400014D0052084F835002068016821F00101EC
:1006500001600098401C0090B84203D820680068F0
:10066000C007F6D184F8349084F83580E16C002915
:1006700010D001B02046BDE8F04308470168C90525
:10068000D5D4016821F01001016084F8349084F819
:100690003580CCE7BDE8F883180000202DE9F04153
:1006A000044600F09FF906465CB1002584F83450FA
:1006B000022084F835002068016821F00101016002
:1006C0000DE00120BDE8F08100F08CF9801B0528C9
:1006D00005D920206065032084F83500F2E7206802
:1006E0000068C007F0D12268116820480140D4E9B1
:1006F00001031843D4E903363343184363691843AD
:10070000A3691843E3691843236A18430843616ADD
:10071000042903D1D4E90B1319430843106020685E
:100720004069666A20F0070130460E43012704281D
:100730000CD1A06A0643E06A40B12046FFF7F4FD01
:1007400020B14020606584F83570BAE720684661C2
:100750002046FFF7D5FD94F85C203F219140816051
:10076000656584F835700020ACE700003F8010F02C
:100770002DE9F0410446866D90F8340000250128EB
:100780000DD0012084F8340094F835700020012F3A
:1007900007D084F8340002252846BDE8F081022005
:1007A000FBE7022784F8357060652046FFF7E6FD19
:1007B00094F85C103F208840B0602068016841F0E8
:1007C000160101602068416941F080014161206C9F
:1007D00020B12068016841F00801016020680168CB
:1007E00041F001010160D7E770B5044600F0FAF866
:1007F0000546601C02D004480078044400F0F2F87A
:10080000401BA042FAD370BD0C0000202DE9F84F28
:10081000DFF890B100224FF001084FF0030A4FF0CB
:100820000F090BF1040E00BF0B6808FA02F4234015
:10083000A3426ED14D68022D01D0122D0ED1D508E4
:1008400000EB850CDCF820505607F70E09FA07F686
:10085000B5430E69BE402E43CCF8206006685500B3
:100860000F790AFA05FC07F0030726EA0C06AF40E9
:10087000374307604E68012E05D0022E03D0112E9B
:1008800001D0122E0ED18768CE6827EA0C07AE4041
:100890003E4386604668A6430C79C4F30014944036
:1008A00034434460C4688E6824EA0C04AE40264396
:1008B000C6604C68E4006FD53B4C256845F4804524
:1008C0002560246822F0030504F480440094374C2A
:1008D0002E19D6F8084895072F0F09FA07F5AC43EB
:1008E000334DA84201D100252EE0324DA84201D15E
:1008F000012529E0304DA84201D1022524E02F4DE9
:10090000A84201D103251FE02D4DA84202D10425A4
:100910001AE041E02B4DA84201D1052514E02A4DF3
:10092000A84201D106250FE0284DA84201D1072594
:100930000AE0274DA84201D1082505E0254DA8422F
:1009400001D1092500E00A25BD402543C6F8085815
:10095000DBF800405D464E689C43F60300D51C431F
:100960002C60DEF8004075464E689C43B60300D507
:100970001C432C600B4D08352C684E689C43F602D6
:1009800000D51C432C60074D0C352C684E689C43E9
:10099000B60200D51C432C60521C102AFFF444AF51
:1009A000BDE8F88F003C014044380240003001406F
:1009B000000002400004024000080240000C024017
:1009C000001002400014024000180240001C0240C7
:1009D00000200240002402400AB1816170470904EE
:1009E000FBE7000001488068704700000C00002011
:1009F000D0F8C00202F05CB8D0F8C00202F06DB8C6
:100A0000006803F01BBA006803F01CBA01EB810117
:100A100000EBC10090F85C00704701EB810100EB36
:100A2000C100C06C704710B5044690F8B8020128A8
:100A300009D0012084F8B802206803F00EFA0020E3
:100A400084F8B80210BD022010BD2DE9FE43054612
:100A5000DDE90B7095F8B842DDF828C0012C1CD0F8
:100A600001EB81044FF0010905EBC40485F8B8924D
:100A7000002684F83D6084F83830A4F8400084F8FB
:100A8000391084F83F7002F07F0884F83A805FEAFA
:100A9000026805D584F83B9004E00220BDE8FE839F
:100AA00084F83B6084F83CC0CDF800C0CDE901700B
:100AB000286803F033FA85F8B862EFE770472DE94C
:100AC000F04101EB8104DDE907E700EBC404DDF848
:100AD00018C084F83B20022684F83F30BCF1000F98
:100AE0000AD084F84260002553B1012B2BD0022B91
:100AF0000FD0032B13D10CE0032584F84250F2E70A
:100B0000BCF1010F0BD152B9D7B9012284F85120A1
:100B100003E0AAB194F85020AAB184F84260C4E975
:100B200011E784F85C50E56484F8391084F85D506E
:100B3000027C04F138010068BDE8F04103F06ABAB4
:100B400094F85120E8E784F84250E8E72DE9F041B5
:100B500004460068064603F07CF901286FD120683E
:100B600003F087FB00286AD0206803F082FB800234
:100B700003D521684FF400104861206803F079FB29
:100B8000C00203D521684FF480104861206803F04B
:100B900070FB400103D521684FF0806048612068F8
:100BA00003F067FB800702D52168022048612068B6
:100BB00003F05FFB800010D5D6F8400420F02E0033
:100BC000C6F840042046FFF717FF0121206803F014
:100BD00035FB21684FF000504861206803F049FB65
:100BE000C00102D5204601F041F8206803F041FB26
:100BF000000705D5204600F0BEF8216808204861AE
:100C0000206803F036FB800124D5206803F0FEF94C
:100C1000074600254FF0010815E000BF05F00F0161
:100C200008FA01F038420DD006EB4510D0F8000567
:100C3000E9B20004204603D500F0E0FD02E01CE02C
:100C400000F0F2FE6D1CA068A842E7D821684FF0C2
:100C500000704861206803F00CFBC043C0060CD450
:100C60002068816921F010018161204601F05AF865
:100C70002068816941F010018161BDE8F08130B5E3
:100C80008BB0040003D094F8B90218B108E0012039
:100C90000BB030BD002084F8B802204600F024F8E4
:100CA000032084F8B902206803F072F804F11001FF
:100CB00028220D466846FFF7C6FA94E80F0003F0B5
:100CC00011F80121206803F0FFFA2822294668461E
:100CD000FFF7B9FA94E80F0003F044FA012084F812
:100CE000B9020020D4E7000010B586B004461421F4
:100CF0006846FFF7C1FA17492068884227D1164C89
:100D00000020216841F002012160216801F0020108
:100D100005914FF4404100910221CDE901100320DB
:100D200003900C20049069460C48FFF76FFD206883
:100D300040F0005020602068002200F00050059034
:100D400011464D2000F0ACF84D2000F09BF806B0A5
:100D500010BD000000000440303802400004024092
:100D6000D0F8C00201F04ABFD0F8C00201F04ABF7B
:100D7000006803F090BAD0F8C00201F0F8BE10B5D8
:100D8000044690F8B80201280DD0012084F8B8027A
:100D9000206803F02BF80121206803F011F80020EF
:100DA00084F8B80210BD022010BD10B5044690F8BA
:100DB000B802012809D0012084F8B802206803F0A5
:100DC0009BFA002084F8B80210BD022010BD00007C
:100DD0000248816802781144816070470C0000204D
:100DE0000B4810B5016841F400710160016841F4DD
:100DF00080610160016841F480710160032000F0AE
:100E00006FF8002000F006F800F024F8002010BD74
:100E1000003C024070B50D4D04464FF47A712878BD
:100E2000B1FBF0F00A490968B1FBF0F000F0E2FA1A
:100E300048B9102C07D200222146501E00F030F88D
:100E400000206C6070BD012070BD00000C0000200F
:100E5000180000200A4808B5016841F4804101608B
:100E6000006800F4804000900548001F016841F0D0
:100E700080510160006800F08050009008BD0000C3
:100E800044380240002809DB00F01F020121914094
:100E90004009800000F1E020C0F800117047000018
:100EA000F0B40E4B1B680C46C3F30223C3F10705D5
:100EB000042D00D90425191D072901D2002300E0C3
:100EC000DB1E012606FA05F1491E214099409E408D
:100ED000761E16403143F0BC03F068BA0CED00E01A
:100EE000064900F0070208684FF6FF03184040EA81
:100EF0000220034A10430860704700000CED00E038
:100F00000000FA052DE9F0470E46050065D0DFF830
:100F10001481D8F80000F7B200F00F00B04207D2F9
:100F200088F80070D8F8000000F00F00B04254D1EB
:100F300028683D4C810712D5400703D5206840F44E
:100F4000E05020602878000703D5206840F4604016
:100F500020602068A96820F0F0000843206028780D
:100F6000C0072DD0304968680839012812D00228FE
:100F700013D0032811D00968890700292DDA2168C8
:100F800021F0030101432160FFF72CFD814641F26E
:100F9000883A0EE009688903EFE709688901ECE700
:100FA000FFF720FDA0EB0901514502D90320BDE860
:100FB000F0872068696800F00C00B0EB810FEFD17A
:100FC000D8F80010404601F00F01B14207D9077070
:100FD000006800F00F00B04201D00120E7E7287858
:100FE000400705D52068E96820F4E05008432060F8
:100FF0002878000706D52068296920F4604040EA77
:10100000C100206000F036F82168084AC1F30311DE
:10101000515CC840064908600020FFF7FBFE002035
:10102000C5E70000003C024008380240505D00085F
:10103000180000200448054900680968044AC1F303
:101040008221515CC84070471800002008380240D7
:10105000605D00080448054900680968044AC1F356
:101060004231515CC84070471800002008380240E7
:10107000605D0008154810B5006810F00C021448B7
:1010800013D01449042A0FD0082A0ED10F4C241F64
:101090002268236802F03F025B0207D52068C0F394
:1010A0008810A0FB010106E0084610BD2168C1F3CD
:1010B0008811A1FB00010023FFF794F82168C1F318
:1010C0000141491C4900B0FBF1F010BD0838024055
:1010D0000024F40040787D012DE9F84F050076D01A
:1010E0002878DFF8F8B2BE4CC00749D0DBF8001012
:1010F0005846C1F38101012908D00068C0F381007E
:1011000002280AD1201D0068400206D5206880030D
:1011100036D568680028E2D032E06868B0F5803FD4
:1011200010D0B0F5A02F206810D020F480302060BF
:10113000206820F4802020606868A0B1FFF752FC8E
:1011400006460CE0206840F48030F4E740F480204C
:101150002060F7E7FFF746FC801B642873D82068FF
:101160008003F7D50CE0FFF73DFC064605E000BF25
:10117000FFF738FC801B6428F0D820688003F7D480
:101180002878DFF8608280074FF000093ED5DBF851
:101190000010584611F00C0F09D00068C0F3810010
:1011A00002280BD18D48001F0068400206D4206839
:1011B000800715D5E868012809D111E0E868B8B1C1
:1011C0000120C8F80000FFF70DFC064605E002E12B
:1011D000FFF708FC801B0228C0D820688007F7D5DD
:1011E0002068296920F0F80040EAC10020600DE085
:1011F000C8F80090FFF7F6FB064604E0FFF7F2FBA5
:10120000801B02281FD820688007F7D428780007A1
:1012100022D5724E744869696C3671B10121016042
:10122000FFF7E0FB074604E0FFF7DCFBC01B0228EA
:1012300009D830688007F7D50EE0C0F80090FFF7B6
:10124000D1FB074605E083E0FFF7CCFBC01B02287B
:101250007ED830688007F7D42878400768D5DFF853
:101260007CA100270AF1380ADAF80000C0000BD48C
:10127000DAF8001041F08051CAF80010DAF80000E6
:10128000012700F080500090584E3068C00510D4FF
:10129000306840F480703060FFF7A4FB009005E0F8
:1012A000FFF7A0FB0099401A022851D83068C0050A
:1012B000F6D54A4EA868683601280FD00528306850
:1012C00010D020F001003060306820F00400306061
:1012D000A868B8B1FFF786FB00900FE0306840F0D7
:1012E0000100F4E740F004003060F7E7FFF77AFB15
:1012F0000099411A41F28830814264D830688007F1
:10130000F4D50EE0FFF76EFB009007E0FFF76AFBF5
:101310000099411A41F28830814254D830688007E0
:10132000F4D42FB1DAF8001021F08051CAF800107F
:10133000A869C0B3DBF80010C1F3810102294AD0CB
:101340000228484607D0C8F86000FFF74BFB00E0D2
:1013500039E005463AE04746C8F86000FFF742FB2F
:10136000064604E0FFF73EFB801B02282BD82068CE
:101370008001F7D4D5E907010843A96A1C4A490846
:1013800002EB01416A6A41EA8211084395F82C1088
:1013900040EA01611148001F016001203866FFF733
:1013A00021FB054605E014E0FFF71CFB401B02286B
:1013B00009D820688001F7D50BE000BFFFF712FBCA
:1013C000401B022802D90320BDE8F88F2068800165
:1013D000F4D40020F8E70120F6E7000008380240C6
:1013E0000038024000004742800E47420070004033
:1013F0000000FFFF10B5401EB0F1807F01D3012037
:1014000010BD4FF0E02460610F21601702F0CEFFA5
:101410000020A06107202061002010BD10B5044607
:101420000068416994F83920C1F3C011212A0BD119
:1014300051B1416921F080014161206B08B1FFF792
:1014400003F8204600F026FE2068416994F83A200F
:10145000C1F38011222A0BD151B1416921F0400121
:101460004161606B08B1FEF7EFFF204600F004FE1B
:10147000002010BD7047000070B502680446106877
:10148000D168536910F00F0F50D003F0010501F43B
:10149000907635435DD0C20705D0CA0503D5E26B0F
:1014A00042F00102E263420705D5DA0703D0E26B9E
:1014B00042F00202E263820705D5DA0703D0E26B4D
:1014C00042F00402E263020705D5DA0703D0E26BBB
:1014D00042F00802E263E26B002A33D0800604D5B2
:1014E000880602D5204600F0DEFD20684069E16BE9
:1014F000C0F38010090700D428B3204600F0BCFDDB
:101500002068416949061AD5416921F040014161CD
:10151000606BA0B11B490165606BFEF7DCFF002822
:1015200010D0606B016DBDE870400847830610D590
:101530008B060ED52046BDE8704000F0B4BD2046B5
:10154000FFF798FF70BD2046FFF794FF0020E0638F
:1015500070BD030606D50B0604D52046BDE87040D5
:1015600000F042BF4006F3D54806F1D5D1682046C9
:1015700021F04001D160202184F8391000F03DF9BC
:1015800070BD0000D91F000870B5040004D094F8A5
:101590003900002510B106E0012070BD84F83850F4
:1015A000204600F023F8242084F839002068C16820
:1015B00021F40051C160204600F0C0FD206801699F
:1015C00021F4904101612068416921F02A014161C3
:1015D0002068C16841F40051C160E563202084F8AF
:1015E000390084F83A00002070BD000070B586B064
:1015F000064614216846FEF73FFE254930688842BA
:1016000043D124480025016841F0100101600068C1
:1016100000F0100005901F481438016841F00101E6
:1016200001600068694600F0010005904FF4C06059
:1016300000900220019001200290032003900720D7
:1016400004901548FFF7E2F8154C144820604FF05D
:101650000060C4E901054014C4E9035080106561CD
:10166000C4E906504002C4E908052046FFF716F811
:1016700008B1FEF7BDFE7463002203212520A66396
:10168000FFF70EFC2520FFF7FDFB06B070BD000044
:101690000010014044380240000002404064024013
:1016A000F4080020F8B5044690F83A0020283CD110
:1016B000C1B3BAB394F83800012836D0012084F8B9
:1016C0003800A162A2850025E563222084F83A0053
:1016D000636B1748D863636B16481864636B1648CE
:1016E000D864606B134605650846666B2168024640
:1016F0003046091DFFF73CF82068016841680091F9
:1017000084F83850C16841F48071C1602068416933
:1017100041F0010141612068416941F040014161AE
:101720000020F8BDFFE70120FBE70220F9E70000F9
:10173000332000086F200008E91F00087047704739
:101740002DE9F843044690F839001F4616460D4629
:10175000202850D1A5B19EB194F8380001284AD074
:10176000012084F838004FF00008C4F83C802120A4
:1017700084F83900FFF736F9A6848146E68426E02E
:101780000120BDE8F883E08C401EE084A0684B4651
:10179000B0F5805F4FF000024FF0800120460097C7
:1017A00003D000F052FEE8B90DE000F04EFEC8B9DB
:1017B00028882168C0F308004860206908B16D1CC2
:1017C00005E0AD1C03E0216815F8010B4860E08CD2
:1017D0000028D8D14B46002240212046009700F037
:1017E00034FE08B10320CCE7202084F8390084F8C7
:1017F00038800020C5E70220C3E770472DE9F05F7D
:10180000074600680E4600EB4114D4F808054FF077
:10181000040B420701EB86004FF0050A4FF0100859
:1018200007EBC00508D5C4F808B5D4F80C0540F09E
:101830000200C4F80C0530E0D4F80805800601D594
:10184000202028E0D4F808054FF0080900070FD53C
:10185000D4F80C0540F00200C4F80C0585F85DA032
:10186000C4F80885C4F80895386802F0F6FA14E060
:10187000D4F80805400510D5D4F80C0540F0020056
:10188000C4F80C05386802F0E8FAC4F8088585F851
:101890005D904FF48060C4F80805D4F80805800511
:1018A0000ED5D4F80C0540F00200C4F80C05314602
:1018B00004F5A164386802F0D0FA4FF4007090E0AB
:1018C000D4F808054FF00001C0074FF0010237D0EF
:1018D000386930B1A86CD4F81035C3F31203C01ABC
:1018E000E86485F85D20A965C4F8082595F83F00EF
:1018F00020B1022802D003280FD01AE0D4F80C053A
:1019000040F00200C4F80C05314604F5A1643868C3
:1019100002F0A3FAC4F800800BE0D4F8000540F010
:101920000050C4F8000585F85C2031463846FFF7C2
:10193000C5F815F8500F80F001002870BDE8F09F41
:10194000D4F80805800735D5D4F80C0520F002003E
:10195000C4F80C0595F85D000223012808D005287D
:1019600009D006280AD0082808D003281FD015E07F
:1019700085F85C2012E085F85CA00FE0A86D401CA3
:10198000A865032813D9A96585F85CB0D4F80005CB
:1019900020F0804040F00040C4F80005C4F808354D
:1019A00095F85C2031463846FFF788F8C6E785F899
:1019B0005C30EBE7D4F80805000614D5D4F80C0524
:1019C00040F00200C4F80C05A86D3146401CA86523
:1019D000062085F85D0004F5A164386802F03DFA40
:1019E00080202060AAE7D4F80805C006A6D595F89F
:1019F0003F00032803D020B1022802D011E0A965DE
:101A000005E0A965386960B9032085F85D00D4F860
:101A10000C0540F00200C4F80C053146386802F0AD
:101A20001CFAC4F8088589E72DE9F047026802EB43
:101A30004114D4F808254FF00403520709D5C4F81F
:101A40000835D4F80C0540F00200C4F80C05BDE8D8
:101A5000F087D4F8082501EB810596064FF00002C7
:101A600000EBC5054FF0020C15D52023C4F808354E
:101A700095F83D30012BEAD185F83D2085F85CC012
:101A8000D4F80C2542F00202C4F80C250068BDE829
:101A9000F04702F0E2B9D4F8086577064FF0010686
:101AA00011D585F85D3085F83D60AA65D4F80C2520
:101AB00042F00202C4F80C25006804F5A16402F0AB
:101AC000CCF9402010E0D4F80875BF050ED5D4F845
:101AD0000C2542F00202C4F80C25006804F5A1644C
:101AE00002F0BBF94FF400702060B0E7D4F808753D
:101AF000FF070FD0AA65D4F80C2542F00202C4F803
:101B00000C25006804F5A16402F0A7F9266085F8A9
:101B10005D609CE7D4F808754FF005095FEA077827
:101B20004FF008070DD5C4F80875D4F80C2542F01D
:101B30000202C4F80C25006802F08FF985F85D9068
:101B400085E7D4F808854FF0100A5FEAC86818D511
:101B5000AA65032285F85D2095F83D2022B995F805
:101B60003C200AB985F83D60D4F80C2542F0020209
:101B7000C4F80C25006804F5A16402F06EF9504623
:101B8000B2E7D4F808855FEA08680FD5D4F80C25C9
:101B900042F00202C4F80C25006804F5A16402F0CA
:101BA0005CF9062085F85D0080209DE7D4F8088563
:101BB0005FEA485812D5D4F80C2542F00202C4F866
:101BC0000C25006804F5A16402F047F9C4F800A0F0
:101BD0004FF48060206085F85D7038E7D4F80875B0
:101BE000BF0796D5D4F80C7527F00207C4F80C751A
:101BF00095F85D70012F0AD0032F17D0042F15D050
:101C0000052F16D0062F17D0082F15D027E085F8FE
:101C10005C6095F83F20022A01D0032A1FD195F875
:101C2000512082F0010285F8512018E085F85CC04F
:101C300015E085F85C9012E0AE6D761CAE65032E63
:101C400003D9AA6585F85C3001E085F85CC0D4F85A
:101C5000002522F0804242F00042C4F80025C4F87A
:101C600008C595F85C20FEF729FFF0E67CB504680E
:101C70000546D4F840040190D4F8400420F02E002A
:101C80000090019880070DD50198C00706D0A06983
:101C900020F00051A1612846FEF7AAFE009840F00E
:101CA000020000900198000732D5009840F008002B
:101CB0000090019840071DD5A869022803D0E86864
:101CC00003280CD00FE00198C0F341400228286897
:101CD00003D0012102F0B2FA05E00221FAE74EF644
:101CE0006020C4F804042846FFF73EF82846FEF7B3
:101CF0007FFE0DE02846FFF733F8D4F8400420F0CB
:101D00002E00C4F840042868816941F000518161C7
:101D100001988006009802D540F020000090C4F899
:101D200040047CBD2DE9F041024600680646016A88
:101D3000C1F3434301F00F07C1F30A14022B25D16D
:101D4000002C23D007EB870102EBC105696C002949
:101D50001CD0224602F091FA686C20446864E86C5A
:101D60002044E86406EB4710D0F81015084A1142E9
:101D70000CD0D0F8001521F0804141F00041C0F8AE
:101D8000001515F8500F80F001002870BDE8F081B3
:101D90000000F81FFEE70000094808B5016841F49B
:101DA000800101600068002200F48000009011466C
:101DB0003A20FFF775F8BDE808403A20FFF762B80F
:101DC0003038024010B504490448FEF719FB0249B7
:101DD000491E087010BD000001000020345D00089D
:101DE00030B587B014216846FEF746FA15480168F9
:101DF00041F080010160016801F0800105910168F6
:101E000041F002010160016801F0020105910168E1
:101E100041F0010101600068012200F001000A4D5B
:101E20009402059021462846FEF7D6FD01210220A6
:101E3000CDE90210CDE9004169462846FEF7E6FCEF
:101E400007B030BD30380240001C02400C4810B5CD
:101E50000A4901604FF4E1314160002181600C22A8
:101E6000C160C0E904128161C161FFF78DFB0028E8
:101E700003D0BDE81040FEF7BBBA10BD0010014012
:101E8000B408002010B500220B490C4800F0EFFD0B
:101E900008B1FEF7ADFA0A49084801F03DFE08B165
:101EA000FEF7A6FA054801F07AFE002803D0BDE847
:101EB0001040FEF79DBA10BDB53B00085409002044
:101EC00024000020014801F057BD00005409002003
:101ED000FEE770470148FEF739BE0000200D0020E4
:101EE00070477047FEF774BF30B593B03021684635
:101EF000FEF7C2F914210CA8FEF7BEF91E48002512
:101F0000016841F080510160006800F0805011903C
:101F10001A48016821F4404141F4804101600068A1
:101F2000022400F440401190012000900004019030
:101F30008001CDE90640192008909020CDE90904E0
:101F400003200B906846FFF7C7F810B10C4802F069
:101F500025FA0CA90F2081E831004FF480500F9032
:101F6000109002210CA8FEF7CDFF002802D00448F3
:101F700002F014FA13B030BD403802400070004047
:101F8000F80300081048016841F4700101600F482F
:101F9000016841F0010101600C4A00210832116022
:101FA00002680B4B1A400260031D0A4A1A6002685D
:101FB00022F48022026005480C3001600249580674
:101FC000803908607047000088ED00E0003802406A
:101FD000FFFFF6FE1030002410B5806B0021C18594
:101FE000C184FFF747FA10BD70B5846B2068406963
:101FF00094F83910C0F3C0100025212904D118B17C
:10200000E584204600F046F82068406994F83A10CC
:10201000C0F38010222904D118B1E585204600F0D4
:102020002BF8E06B40F01000E0632046FFF722FA47
:1020300070BD10B50146806B09680968C90513D4E5
:102040000021C1850168CA6822F48072CA600168F3
:102050004A6922F001024A6101684A6922F040029D
:102060004A61202180F83A10FFF768FB10BD10B5D7
:10207000806BFFF764FB10BD0168CA6822F49072A0
:10208000CA6001684A6922F001024A61202180F891
:102090003A1070470168CA6822F0C002CA60202165
:1020A00080F83910704710B590F83A10222901D005
:1020B000022010BD8168B1F5805F11D0016900294F
:1020C00001681FD0496801F07F03816A4A1C82625F
:1020D0000B70C18D491E0904090CC18518D02BE075
:1020E0000269816A002A0268526805D0D2B20A8069
:1020F000816A491C8162ECE7C2F308020A80816AA6
:10210000891CF7E74A68816A4B1C83620A70E0E722
:102110000168CA6822F02002CA600168CA6822F415
:102120008072CA6001684A6922F001024A61202176
:1021300080F83A10FFF702FB002010BD2DE9F041B6
:10214000044600680169E26821F4405111430161CD
:102150002169A068E2690843616911432268084364
:10216000D16849F20C6399430143D1602068416909
:10217000A26921F4407111434161E2696425B2F51D
:10218000004F9748974922684FF032083FD08A4263
:1021900001D082427CD1FEF75DFF00EBC00101EB74
:1021A000001061688900B0FBF1F6FEF753FF00EB09
:1021B000C00101EB001061688900B0FBF1F0B0FBD9
:1021C000F5F06FF01801484306EB800108EB0110B1
:1021D000B0FBF5F000F0F006FEF73CFF00EBC001AD
:1021E00001EB001061688900B0FBF1F0B0FBF5F085
:1021F00006EB0016FEF72EFF00EBC00101EB00100E
:1022000061688900B0FBF1F7FEF724FFD2E08A4253
:1022100001D082423DD1FEF71DFF00EBC00101EB72
:10222000001061684900B0FBF1F0B0FBF5F0060169
:10223000FEF710FF00EBC00101EB001061684900E0
:10224000B0FBF1F7FEF706FF00EBC00101EB001059
:1022500061684900B0FBF1F0B0FBF5F06FF01801D8
:10226000484307EB800108EBC100B0FBF5F000F03C
:10227000F80006EB4006FEF7EDFE00EBC00101EBB7
:10228000001061684900B0FBF1F7FEF7E3FE3CE0A7
:1022900055E0FEF7CFFE00EBC00101EB00106168D6
:1022A0004900B0FBF1F0B0FBF5F00601FEF7C2FE0D
:1022B00000EBC00101EB001061684900B0FBF1F7D1
:1022C000FEF7B8FE00EBC00101EB001061684900A9
:1022D000B0FBF1F0B0FBF5F06FF01801484307EBED
:1022E000800108EBC100B0FBF5F000F0F80006EB50
:1022F0004006FEF79FFE00EBC00101EB0010616895
:102300004900B0FBF1F7FEF795FE00EBC00101EBD1
:10231000001061684900B0FBF1F0B0FBF5F06FF020
:102320001801484307EB800108EBC100B0FBF5F052
:1023300000F00700216830448860BDE8F081FEF7B6
:1023400079FE00EBC00101EB001061688900B0FB71
:10235000F1F6FEF76FFE00EBC00101EB00106168C3
:102360008900B0FBF1F0B0FBF5F06FF018014843C5
:1023700006EB800108EB0110B0FBF5F000F0F00671
:10238000FEF758FE00EBC00101EB00106168890008
:10239000B0FBF1F0B0FBF5F006EB0016FEF74AFEDD
:1023A00000EBC00101EB001061688900B0FBF1F7A0
:1023B000FEF740FE00EBC00101EB001061688900F0
:1023C000B0FBF1F0B0FBF5F06FF01801484307EBFC
:1023D000800108EB0110B0FBF5F000F00F00A9E759
:1023E000001401400010014090F83910212901D05B
:1023F000022070478168B1F5805F016A0BD04A1CEA
:102400000262026809785160C18C491E0904090CF6
:10241000C1840ED017E009880268C1F30801516039
:1024200001690029016A02D0491C0162ECE7891C9C
:10243000FBE70168CA6822F08002CA600068C168D0
:1024400041F04001C160002070472DE9F0419846FD
:1024500017460E460446069D1DE0681C1BD02DB194
:10246000FEF7C0FAA0EB0800A84214D92068C168A2
:1024700021F4D071C1602068416921F001014161FE
:10248000202084F8390084F83A00002084F83800CD
:102490000320BDE8F0812068006836EA000004D01F
:1024A0000020B842D9D00020F3E70120F9E700006E
:1024B0000C4808B500680168C943C9060DD4016815
:1024C000406800900748FEF7A9FF074901208202F3
:1024D000087006490348FFF7E5F8BDE808400148E1
:1024E000FEF7CABFB408002005000020B404002095
:1024F00010B500224FF6FF7300EB8204B4F880435E
:10250000240409D49A4205D000EB820041F4004132
:10251000C0F88013D0B210BD521CD2B20B2AEBD33C
:102520001A46F7E77FB51C46012501AE002300954A
:1025300086E80E0002232A46214600F095FB04B0EF
:10254000002070BD7FB51D4690F81D33089C03B177
:1025500000240123CDE90031CDE902240223002229
:10256000294600F081FB04B0002070BD10B500F0DA
:1025700096FA002010BD8278012A07D10222027447
:1025800001224274002242828182C28200221146CC
:1025900000F00FB87FB51C46012501AE0023009561
:1025A00086E80E002A46214600F05EFB04B00020BB
:1025B00070BD70B504460120A3780546012B0CD0F0
:1025C000022B09D1204600F014F9002158B103284C
:1025D00009D0022800D1A57070BDA160A281257626
:1025E0000221A17070BDA570217670BD7FB51D461A
:1025F00090F81D33089C03B100240123CDE900317C
:10260000CDE9022400231A46294600F02DFB04B030
:10261000002070BD1FB500231446CDE9003108220B
:10262000CDE902231A46214600F01EFB04B000202B
:1026300010BDFEF7D9B8000070B50546002005F5BD
:102640004D7500BF00EB800404EBC00405EB4404AF
:10265000E67B0A348E4201D0FF2909D1A679964241
:1026600001D0FF2A04D1E4799C4206D0FF2B04D08C
:10267000401CC0B20228E5D3FF2070BD0B2907D251
:1026800000EB8100B0F88013C1F30E01C0F8801395
:102690000020704730B48578029C012D0FD141F0A5
:1026A000800101740621417403214282B1EB122F93
:1026B00002D140F2094100E000218182C482224619
:1026C00030BC1946FFF775BF0A8803781A440A80A0
:1026D000017808447047F8B50E4600F11C050091DA
:1026E00004462B464FF400720021FFF7D3FF07008A
:1026F00005D13246294604F54D7001F0CFF8384631
:10270000F8BD38B50D460091044600F58E734FF4C0
:1027100080720021FFF7BEFF002839D194F81C1108
:1027200084F8221394F81D1184F82313B4F81E11B1
:10273000A4F8241394F8201184F8261394F8211196
:1027400084F8271394F8221184F8281394F823119D
:1027500084F82913082D1BD9B4F82411A4F82A13DE
:10276000B4F82611A4F82C13B4F82811A4F82E13E9
:1027700094F82A1184F8301394F82B1184F831134B
:1027800094F82C1184F8321394F82D1184F8331333
:1027900038BDF8B51C461646009341F4407200F56A
:1027A0008E731D460021FFF775FF002814D169784C
:1027B000032911D129788A1EA24200D8144600218B
:1027C000A2B2AD1C04E06B5C891C06F8013B89B227
:1027D0009142F8D300213170F8BD01004FF00000A4
:1027E00004D0012901D0022901D002207047012024
:1027F00070472DE9F84F04460125007E0B262F4631
:102800004FF009084FF007094FF0050B4FF00D0A84
:102810000C2819D2DFE800F0AF060E26313D4961E1
:102820006C7D8A9B627904F110012046FFF7F2FE6D
:10283000022012E06179204600F095F9012804D0C9
:10284000042872D0022870D095E0207CE18A00F044
:10285000800021B180283BD1032020768BE08028A6
:1028600014D02FE0D4F8BC03E0812379A28920465C
:10287000A168FFF78FFE0420EFE72179204600F0E2
:1028800072F9012802D0052841D057E084F8188059
:1028900071E000976379A2892046A168FFF7A6FE40
:1028A000D4F8BC03E0810620D7E76179204600F028
:1028B0005AF9012806D0052807D0022808D0042894
:1028C00009D058E084F8189055E00C2020761EE0DE
:1028D00084F818B04FE026764CE0002223791146A8
:1028E0002046FFF757FED4F8BC03E0810820B4E788
:1028F0002179204600F037F9012804D0042824D09B
:10290000052804D037E084F818A0002533E003251B
:1029100031E000970022637911462046FFF766FEFA
:10292000D4F8BC03E0810A2097E70EE061792046E5
:1029300000F019F9012804D00228A7D0042804D0F7
:1029400019E0002584F818A015E0267613E0607ED3
:10295000401CC0B26076022805D8204600F07BF902
:102960002776A77007E0D4F8C823062120469047B1
:102970000020607602252846BDE8F88FFEB50446A3
:10298000012640780025374604F58E7208286CD25F
:10299000DFE800F004161D434A5357620821204621
:1029A000FFF7AFFE002860D194F82903A07167708B
:1029B00094F81D130091CDE9015094F81C3319E0EF
:1029C00012212046FFF79DFE30BB022033E001219B
:1029D000204601F0BAF8F8B90220FFF72AFE84F881
:1029E0001C7303206070A07994F81D13CDE90015C5
:1029F0003B46029021798022204600F045FFA079D5
:102A000094F81D130091CDE9015094F81C336179BD
:102A10000022204600F038FF27E009212046FFF77A
:102A20005AFE10BB042006E0B4F836132046FFF728
:102A300052FED0B90520607017E094F830130625D7
:102A400002E094F83113072521B1FF232046FFF758
:102A5000A0FE50B9657008E094F8321321B1FF234D
:102A60002046FFF796FE00B900263046FEBD70B541
:102A70000D46040011D084F8C0230020C4F8780368
:102A8000C4F87C032046FDF78DFC0DB1C4F8C85393
:102A9000204600F07BF8002070BD022070BD10B50C
:102AA000D0F8C403FDF7BFFFBDE81040FFF795BEA7
:102AB00010B5017821B190F81F13012909D00AE05F
:102AC000012180F81E13D0F8C82322B104219047B9
:102AD00001E002210170002010BD10B5044600F095
:102AE000BAF821792046FFF7C9FD61792046FFF742
:102AF000C5FD002084F81E03D4F8C82312B10521B7
:102B000020469047204600F09DF8032020700020CA
:102B100010BD10B5C820FDF767FE002010BDD0F82D
:102B2000C403FDF77ABF10B50124D0F8C403FDF744
:102B30006AFF20B1012805D0022803D101E000245A
:102B400000E00224204610BDD0F8C40301EB81014F
:102B500000EBC10090F83B1011B190F850007047A5
:102B600090F851007047D0F8C403FDF74FBFD0F87C
:102B7000BC13491CC0F8BC1301780B2905D1D0F84F
:102B80007813002901D089690847704710B50446B9
:102B900090F8C003F0B9104810490222C0F8C042B2
:102BA000C4F8C40301600C2181600321C1600021CD
:102BB0000161C0E906210162C1624163FEF75FF86D
:102BC00008B1FDF715FC0448FDF71AFF0146204641
:102BD00000F025F8002010BD200D0020000004406A
:102BE000FEB508AF97E870008DE87000D0F8C40318
:102BF000FDF72BFFBDE8FE40FFF7EFBD002180F899
:102C00001F137047012180F81F13704710B5D0F8CB
:102C1000C403FEF7ADF8BDE81040FFF7DEBDC0F815
:102C2000BC137047D0F8C40301EB810100EBC10075
:102C300090F83B1011B180F8502001E080F851204D
:102C40000020704710B5D0F8C403FEF798F8BDE82F
:102C50001040FFF7C2BD10B5D0F8C403FEF7A5F8C9
:102C6000BDE81040FFF7B9BD2DE9FF410DF128087F
:102C700098E8F0008DE8F000D0F8C403FDF71FFFDE
:102C800004B0BDE8F041FFF7A8BD03460220D3F829
:102C90007813C9692AB1012A05D189791846FFF745
:102CA0006ABCC979FAE77047D0F878030549C0696A
:102CB000416505498165012100F8501F81700020A0
:102CC0007047000055534243504030202DE9F84FE3
:102CD0000746D0F8780301263546C4694FF00B0A41
:102CE0004FF00A0B94F850004FF009094FF0070815
:102CF0000C2845D2DFE800F0D20611252E48527587
:102D00007EA7AFCB84F86110022084F850000095B4
:102D100063791F2204F1540159E061793846FFF7C5
:102D200022FF012802D002287ED03FE0E06D00287B
:102D300029D094F86000000601D503204BE005205F
:102D400049E0237962893846D4F88C10FFF7EAFB12
:102D5000042040E021793846FFF705FF01284FD1D4
:102D60006289E06D90420CD9D4F88C10801A11441D
:102D7000C4F88C10E0656BD023793846FFF7D2FB9E
:102D80008CE00020E06563E0009563792289384695
:102D9000D4F88C10FFF7D6FB06201CE0617938468A
:102DA000FFF7E1FE012804D00228C8D0052815D07D
:102DB00074E02289E06D9042E3D9D4F88C10801A37
:102DC0001144C4F88C10E06542D000956379384610
:102DD000FFF7B8FB62E084F850005FE084F850B081
:102DE0005CE023790D2204F178013846FFF79AFB65
:102DF0000820F0E721793846FFF7B5FE012802D018
:102E000005281DD04AE004F8505F3846A570D7F871
:102E10007813CC692179FFF782FE0D280CD1214966
:102E2000A06F884208D100E036E0A16DE06F8842D3
:102E300002D194F8840008B102262FE000262DE08C
:102E400084F850902AE000223846FFF71EFF38B978
:102E500084F8508022E001223846FFF716FF10B1B7
:102E6000042811D01AE061793846FFF76DFEC0F1F1
:102E70000100C2B261793846FFF7D4FE2179002201
:102E80003846FFF7CFFEDBE784F850A006E038466F
:102E900000F015F8060001D184F850503046BDE826
:102EA000F88F000055534253A1220274FE2242744F
:102EB0000022428282820122C282FFF77ABB212154
:102EC0000174FF214174002141828182C1820A463E
:102ED000FFF76FBB70B5D0F878130125CC69A17BE3
:102EE00021B1022902D003292ED127E02146FFF784
:102EF000DBFF00210546032801D01DB124E0002599
:102F0000216004E02068022801D9022001E0207835
:102F1000401C2060002002230CE000BF00EB800278
:102F200002EBC00204EB8202401C82F8923082F86D
:102F3000C110C0B222688242F0D805E00021FFF73C
:102F40001AFB08B9E07BA073284670BD10B5144683
:102F5000D0F878230078D3690B2801D0022010BD67
:102F600001EB810000EBC10003EB8001342220461D
:102F70009031FDF768F9002010BD70B50546D0F816
:102F800078030026C469617939B12846FFF7EEFA63
:102F900061792846FFF772FB6671217939B12846BD
:102FA000FFF7E4FA21792846FFF768FB2671D5F888
:102FB0007803C06920B102F021FBD5F87803C6611F
:102FC000002070BDFEB50546D0F8780302245023DA
:102FD000017906222846FFF72FFB0146FF287DD006
:102FE000284600F0A7FDE00102F0E0FCD5F87813D8
:102FF0000446C86195F8200300EB800101EBC00096
:1030000005EB400090F84A0301060CD5E07195F8F5
:10301000200300EB800101EBC00005EB4000B0F89D
:103020004C0360810BE0A07195F8200300EB800158
:1030300001EBC00005EB4000B0F84C03208195F88F
:10304000200300EB800101EBC00005EB400090F88D
:10305000520301060CD5E07195F8200300EB8001C6
:1030600001EBC00005EB4000B0F8540360810BE0B9
:10307000A07195F8200300EB800101EBC00005EB87
:103080004000B0F8540320810020A4F8F800A4F810
:10309000FA0020736073A073A1792846FFF728FA1D
:1030A0006071E1792846FFF723FA20712846FFF77F
:1030B000FBFD682104F19000FDF7DEF8208995F80A
:1030C0001D1302260091CDE9016095F81C33A27909
:1030D0006179284600F0D8FB608900E016E095F899
:1030E0001D130091CDE9016095F81C33E279217937
:1030F000284600F0C9FB217900222846FFF792FDFF
:10310000617900222846FFF78DFD00242046FEBD90
:103110002DE9F0470746D0F878034FF0010AC4695B
:10312000207B10B101282DD12CE1B4F8F8002168E2
:1031300001254FF0000888426FD200EB800101EBBF
:10314000C00004EB8000022680F89150B4F8F8002B
:103150004FF0050900EB800101EBC00104EB810297
:1031600092F8901009290DD2DFE801F0050C1F88B4
:103170000DB10C0CFF00042082F89000D7F8BC03BE
:10318000C4F8FC0000E1C1B238469F3200F08CF96F
:1031900040B9B4F8F80000EB800101EBC00004EB8B
:1031A0008000B6E002287DD099E0C1B2384600F038
:1031B000ABFA10B1022831D091E0B4F8F80000EB7E
:1031C000800101EBC00004EB800090F8921011B177
:1031D00080F8C15001E080F8C180B4F8F8200320E5
:1031E00002EB820101EBC20104EB810181F8900046
:1031F000B4F8F81001EB810202EBC10104EB81018C
:1032000081F89180B4F8F81001EB810202EBC10162
:1032100004EB810181F89280B6E0AAE0B4F8F800EE
:1032200000EB800101EBC00004EB800090F89210ED
:10323000022902D080F8C15001E080F8C180B4F8C2
:10324000F81001EB810202EBC10104EB810181F86E
:103250009090B4F8F80000EB800101EBC00004EBA3
:10326000800080F89150B4F8F80000EB800101EB89
:10327000C00004EB800080F8926085E0C1B238465F
:10328000943200F0BBF900288CD1B4F8F80000EBC0
:10329000800101EBC00004EB800080F89050B4F88E
:1032A000F81000E008E001EB810202EBC10104EB41
:1032B000810181F8918031E0B4F8F81001EB8102CE
:1032C00002EBC10104EB810181F890905CE0C1B296
:1032D00038469C3200F0CFF920B1022823D00428D0
:1032E0002DD051E0B4F8F80000EB800101EBC000F4
:1032F00004EB800090F89C10062901D002290BD124
:10330000D7F8BC13D4F8FC20891A42F2107291420B
:1033100002D280F8906037E080F8905034F8F80FCF
:10332000401C208030E0B4F8F810082001EB810246
:1033300002EBC10104EB810181F8900024E0B4F8B4
:10334000F80000EB800101EBC00004EB800080F886
:103350009050B4F8F80000EB800101EBC00004EBE2
:10336000800080F891600FE0FFE7401CA4F8F800AF
:103370000AE0A4F8F8802573D7F8C823022138465C
:10338000904701E04FF0000A5046BDE8F08700008A
:103390002DE9F843D0F8782301EB810303EBC10357
:1033A000D269012502EB8304082794F890302E4659
:1033B000052B22D000224FF00508062B02D0072B48
:1033C0002AD10CE0002300921A4600F0D7F80BE057
:1033D00002280FD018E000BF84F890701BE0002393
:1033E00000921A4600F0B6F90028F1D184F89060F6
:1033F000002511E084F890800EE004F19C0200F0BA
:103400003AF920B1022807D00428E5D004E004F8F6
:10341000906F0220607002252846BDE8F8832DE9F0
:10342000F8430446D0F87803089E0F46C56994F81F
:103430001E0360B120780B2809D107EB870000EB51
:10344000C70005EB800090F89010012902D00220FF
:10345000BDE8F8830621297380F89010A5F8FA706A
:1034600039462046009600F089F8D4F8BC8340F233
:1034700071204FF00109464309E0D4F8BC13A1EBD9
:103480000800B0EB061F0CD894F81E0348B139466B
:103490002046FFF77DFF0128EFD085F80C90002033
:1034A000D6E785F80C90D2E72DE9F0411546D0F823
:1034B000782302270026D4694FF0010894F852209F
:1034C000012A02D0022A56D126E024208022E0657B
:1034D00084F860200A2284F86220C4F86360C4F88B
:1034E0006760A4F86B60122284F86320490184F8B5
:1034F000641084F8656084F8666084F8670084F876
:103500006860022084F8508084F8520004F11000B2
:103510000127C4F88C002EE0FFF7D8FB07002AD162
:1035200022212846FCF7A8FED4F88C00007800F091
:103530001F006870D4F88C00007840092870D4F817
:103540008C004078000602D585F8028000E0AE705D
:1035500054F88C0F10228168C5F80310C068C5F8B4
:103560000700216805F10C001031FCF76CFE2068A3
:10357000006AC5F81D003846BDE8F0812DE9F0412C
:10358000154602461F46D2F878330220069EDC69B3
:1035900094F85230012B06D0022B2DD1BDE8F0411A
:1035A0001046FFF793BBB4F8980010217043E06514
:1035B000802084F860000A2084F8620004F163002F
:1035C000FCF75AFE282084F86300280E84F8650072
:1035D000280C84F86600280A84F8670084F868508C
:1035E000300A84F86A0084F86B60012004F8500FF8
:1035F0000220A0700120E763BDE8F08170B5164697
:10360000D0F878230125D46994F85220012A02D0F9
:10361000022A2ED11AE00820E065802084F860009C
:103620000A2084F86200102104F16300FCF724FEF4
:10363000252084F86300012084F85000022084F8DB
:10364000520004F11000C4F88C0012E0FFF73EFBBA
:1036500005000ED154F88C0F4188427849BA0078A1
:1036600062F31F4141EA006030602068C08840BAC0
:10367000B080284670BD70B5154602460E46D2F899
:1036800078130220CC6994F85210012914D0022931
:1036900011D131461046FFF719FB00280BD154F821
:1036A0008C1F897801F00F0129702168097B6970EE
:1036B0002168497BA97070BD0E258020E56584F8DE
:1036C00060000A2084F86200102104F16300FCF716
:1036D000D3FD032084F86300700184F864000020A7
:1036E00084F8650084F8660084F8675084F8680000
:1036F000012084F85000022084F8520004F11000E8
:10370000C4F88C00012070BD70B502460220D2F8CA
:103710007833DC6994F85230012B06D0022B18D193
:10372000BDE870401046FFF7D1BA0025E56584F882
:1037300060500A2084F86200102104F16300FCF755
:103740009BFD84F86350012004F8500F0220A07004
:10375000012070BD2DE9F041154602461F46D2F802
:1037600078330220069EDC6994F85230012B06D093
:10377000022B2DD1BDE8F0411046FFF7A7BAB4F8EF
:10378000980010217043E065002084F860000A2052
:1037900084F8620004F16300FCF76EFD2A2084F8CF
:1037A0006300280E84F86500280C84F86600280A57
:1037B00084F8670084F86850300A84F86A0084F856
:1037C0006B60012004F8500F0220A0700120E76315
:1037D000BDE8F08100207047D0F878230078D269E6
:1037E0000B2808D101EB810000EBC10002EB800047
:1037F00090F8910008B100207047012070472DE932
:10380000F8430446D0F87803089E0F46C56994F83B
:103810001E0360B120780B2809D107EB870000EB6D
:10382000C70005EB800090F89010012902D002201B
:10383000BDE8F8830721297380F89010A5F8FA7085
:10384000394620460096FFF785FFD4F8BC8340F246
:1038500071204FF00109464309E0D4F8BC13A1EBF5
:103860000800B0EB061F0CD894F81E0348B1394687
:103870002046FFF78DFD0128EFD085F80C90002041
:10388000D6E785F80C90D2E7FEB508AF97E8700050
:103890008DE87000FFF7A4F90020FEBD2DE9F84186
:1038A00005460B782B704B786B704B886B800B79CF
:1038B0002B714B796B718B79AB71CB790846EB71BE
:1038C0000027097A2972092A54D90921ADF8001074
:1038D0004BE06946FEF7F8FE4178042943D107EB37
:1038E000870101EBC70105EB4108017888F80A1050
:1038F000417888F80B10817888F80C10C17888F826
:103900000D10017988F80E10417988F80F1081792F
:1039100088F81010C17908F10A0488F81110017AAA
:103920002172002615E06946FEF7CEFE4178052992
:103930000FD108EBC60102780A7542784A75827881
:103940008A75C278CA7582880A838279761C8A76DB
:10395000F6B22179B14204D96A88BDF800108A42D2
:10396000E1D87F1CFFB2022F04D26988BDF8002085
:103970009142AED8BDE8F881FEB5022204468DF82A
:10398000002094F81F13002031B9237823B1237845
:10399000032B01D0032323702378002508270D264D
:1039A0000C2B13D2DFE803F0061317ABB646945581
:1039B0005C6471A494F81E03002807D001202070D5
:1039C000C820FEF736FE2046FFF720F9A2E00129C5
:1039D00000D122709EE06420FEF72BFE2046FFF708
:1039E000A2F884F81D030520207000212046FEF770
:1039F0007FFD607180212046FEF77AFD207101462F
:103A0000A07994F81D230092CDE9015094F81C335D
:103A100080222046FFF738FFA07994F81D1300910B
:103A2000CDE9015094F81C33617900222046FFF75C
:103A30002BFF6FE02046FEF7A1FF00286AD184F833
:103A4000205394F83303012801D007204CE027705D
:103A500060E0D4F8C823D2B3012120469047F6E7AE
:103A600094F83913204600F07EF880BB09203BE033
:103A700094F83B034FF00A05800604D50121204647
:103A800000F07FF818BB257044E0D4F87C13F1B146
:103A9000C4F8785394F8432304EB8001D1F87413ED
:103AA0000B79934201D1C4F87813401C10F0FF0049
:103AB000F2D0D4F87803C8B1816820468847A8B905
:103AC00006202070D4F8C82303212046904721E027
:103AD000D4F8780350B10169204688478DF800007A
:103AE0009DF80000B0B90B20207013E0267011E0A3
:103AF000D4F8780370B14169204688470AE020462F
:103B0000FCF750FCD4F8780320B1C1682046884700
:103B1000C4F878530020FEBD002211B1D0F87C33E8
:103B200013B10222104670470123C0F87C33C0F85D
:103B30007413F7E70246002092F838338B4202D91B
:103B400082F820137047022070478278012A06D13C
:103B5000002202740523437441828282C2820022C1
:103B60001146FEF726BD8278012A06D10022027492
:103B70000923437441828282C28200221146FEF7E9
:103B800018BD8278012A06D10022027403234374EF
:103B900041828282C28200221146FEF70ABD10B520
:103BA0000446FFF74FF801212046FEF7B2FF002040
:103BB00010BD000001290AD00548022906D00429B9
:103BC00003D0052903D1032100E0012101707047D2
:103BD000060000200020704730B58DB01546012446
:103BE00049B1012909D0022910D0032918D0042491
:103BF0000DB0204630BD0024FAE701466A460E4863
:103C0000FFF7A4F90028F3D1019813E001466A46B2
:103C10000948FFF79BF90028EAD1BDF8080009E040
:103C200001466A460448FFF791F90028E0D1BDF843
:103C30000800400A2860DEE75409002030B58FB044
:103C4000054600930B46014601240C48FFF7E7FBAD
:103C500068B101AA29460948FFF778F99DF81100D3
:103C6000042806D0282804D03A2803D101E00024F3
:103C700000E003240FB0204630BD000054090020AE
:103C800010B5014601240348FFF7A6FD00B100244A
:103C9000204610BD5409002030B58FB00546009372
:103CA0000B46014601240E48FFF7A9FD78B101AA91
:103CB00029460B48FFF74AF99DF8110004280AD05D
:103CC000272806D0282806D03A2805D103E000246A
:103CD00002E0022400E003240FB0204630BD0000C3
:103CE0005409002070B5044606990A9E049D0D985B
:103CF000012916D0E06840F04000E060204600F066
:103D00002BF8A16B1EB321F48031A163012D07D1E3
:103D1000A16841F00601A160A16841F02001A16005
:103D200070BDA16B21F48031A163E168094A1140A3
:103D3000E160E16821F44011E160012803D1E0680D
:103D400040F48010E060204600F006F8DEE741F421
:103D50008031DAE7BFFFBDFF01220C4902E0521CAF
:103D60008A420BD80369002BF9DA026942F001029A
:103D70000261012204E0521C8A4201D903207047EB
:103D80000369DB07F7D1002070470000400D0300F6
:103D9000816821F0010181600020704700EB411033
:103DA000064AC0F81025D0F8001521F0804141F0F6
:103DB0000041C0F800150020704700000000088096
:103DC00008B5D0F8402422F02E020092D20405D487
:103DD000012909D1009941F4805103E021B90099EA
:103DE00021F48051C0F84014002008BD816841F0E2
:103DF0000101816000207047002110220261054A04
:103E0000491C914201D9032070470369DB06F7D4AE
:103E100000207047400D03000022202343EA811157
:103E200001610549521C8A4201D903207047036988
:103E30009B06F7D400207047400D0300D0F808041B
:103E400080B2704708B5D0F840040090C0F34140FC
:103E500008BD406900F00100704700EB4111D1F846
:103E600000254FF47A73C2F381426AB1022A0BD063
:103E7000D1F8002542F08042C1F80025D0F81004A6
:103E800010F47F0F2ED009E0D1F8002542F08042D7
:103E9000C1F80025C06A10F47F0F07D0D1F80005E3
:103EA00040F00040C1F8000500207047D1F800053F
:103EB00020F00040C1F80005D1F8000540F00040B6
:103EC000C1F80005D1F8000520F40040C1F8000554
:103ED000012002E0401C9842E6D8D1F80025002AD3
:103EE000F8DBE1E7D1F8000520F00040C1F800055B
:103EF000D1F8000540F00040C1F80005D1F80005F8
:103F000020F40040C1F80005012002E0401C984266
:103F1000CAD8D1F80025002AF8DBC5E72DE9F0431F
:103F20000026DDE9078500EB4114771EDDF82490BB
:103F3000C4F80875CDB1012D32D0022D15D0032D56
:103F400027D00126D0F8187401F00F0C012101FAD6
:103F50000CF10F43C0F81874816941F00071816160
:103F600010062AD54FF4004028E040F29D47C4F8DF
:103F70000C75170605D500BFD4F80C7547F480778B
:103F800018E0C76BFF05DDD5D4F80C7547F0600766
:103F900010E040F29D67C4F80C751706ECD4D1E729
:103FA00040F22527C4F80C751706CBD5D4F80C754C
:103FB00047F4C077C4F80C75C4E70020B8F1020FCD
:103FC00018D000214FF0FE5707EA83534FF4F04713
:103FD00007EAC22213434FF4402202EA8542134308
:103FE000C9F30A02134303430B43C4F80035032DFE
:103FF00003D008E04FF40031E4E7D4F8000540F0C6
:104000000050C4F800053046BDE8F083D0F8140431
:1040100080B27047F8B54C78C56B4FF48073ED05EE
:104020004FF0000715D50D799DB912B1012A07D0BF
:104030000FE04D79012D0CD12146FFF7AFFE8CE04A
:1040400000EB4415D5F80C6526F06006C5F80C6544
:104050004F710E695EB10D892E44761EB6FBF5F6E2
:10406000B6B29E4204D91E462B020B6100E0012627
:10407000CB78CBB30B897343C1F810306FF0604538
:10408000C3F3120305EAC6452B438D7A4FF0C046B1
:1040900006EA45752B4300EB44140546C4F8103579
:1040A00012B1CB68C4F81435D5F80834D4F80055EB
:1040B00043F3000325F00055C4F80055D4F800552B
:1040C0005B1C45EA4373C4F80035D4F80055244B13
:1040D0001D601D6825F080451D60CD78002D1D6890
:1040E00005D045F4004504E0FFE70B69C6E725F479
:1040F00000451D601D6845F000451D601B68C4F843
:10410000003552BBCA7842BB0A6932B3CB7933B1AE
:10411000012B0FD0022B02D0032B17D10AE0D21CA7
:10412000C36AC2F38F029BB293420FD2826942F0FC
:1041300020020AE0D21CD0F81034C2F38F029BB2E6
:10414000934203D2826942F08062826100970A8AB8
:1041500093B24A78C96800F00EF90020F8BD00005B
:10416000080000202DE9F0410025DDF818801746F1
:104170000446C0F8005E806B40F40010A063A06BA2
:1041800020F40020A063A06B20F48020A063E06BEB
:10419000C00501D5032B04D0D4F8000420F004019D
:1041A00003E0D4F8000440F004012046C4F80014F1
:1041B0001021FFF731FE2046FFF71EFE0020461EAD
:1041C00007E000BF04EB4011C1F80865C1F80C55C9
:1041D000401C8742F6D801212046FFF7F1FDC82098
:1041E000FCF702FBA5616661E06BC00506D54FF4E4
:1041F000007060620C48A0620C4804E0802060629D
:104200000B48A0620B48C4F80001B8F1000F03D1BD
:10421000A06940F01000A061A06907490843A061AF
:104220000020BDE8F0810000000200010003E00072
:1042300080006000E0004000080020A3D0F80024C7
:1042400022F00302C0F80024D0F8002401F0030398
:104250001A43C0F80024012902D0022903D006E045
:104260004BF6803101E041F27071C0F80414002077
:1042700070474169806908407047D21C10B59308A7
:10428000002200F5805002E00468521C10C19A42DE
:10429000FAD3084610BD38B50446D0F8400420F0E3
:1042A0002E00009040F48070C4F84004642004F5AF
:1042B0008864FCF799FA009820F4807020600A2046
:1042C000FCF792FA002038BD10B5C26822F0C04257
:1042D000C260012902D029B1012010BDC16841F09E
:1042E000005102E0C16841F08041C1603220FCF71A
:1042F0007BFA002010BD000030B504468068002520
:1043000020F00100A06010212046FFF785FD204627
:10431000FFF772FD5FF0000004EB4011D1F80025BB
:1043200022F0802242F08042C1F80025401C0F2874
:10433000F2D900204FF47A7304EB4011D1F8002534
:1043400022F4004242F04042C1F800256D1C9D421B
:1043500003D8D1F80025002AF8DB401C0F28EBD940
:104360004FF0FF30C4F814046061A06840F0010011
:10437000A060002030BD10B5029C64B9DB1C9C0815
:1043800000EB0230002300F5805002E004C9026017
:104390005B1CA342FAD3002010BDFEE7014A02498C
:1043A00000F023B8E5550008440000200907090E75
:1043B000002804DB00F1E02080F80014704700F0D2
:1043C0000F0000F1E02080F8141D704702E008C8DB
:1043D000121F08C1002AFAD170477047002001E07F
:1043E00001C1121F002AFBD170472DE9F04116468A
:1043F0000F460446002503E03946B047641C6D1C97
:1044000020780028F8D12846BDE8F08110B5044690
:104410000020E070401E2063204601F00EFB08B132
:10442000042010BD04F2322001F034FAA0F52A4134
:10443000553901D0032010BD94F83400E92805D087
:10444000EB2814D194F83600902810D104F16A00BA
:1044500001F015FA0749B1EB002F06D004F18600F0
:1044600001F00DFA0449884201D1002010BD02205C
:1044700010BD0000004641544641543300E0401C4A
:1044800002780AB18A42FAD1D0B27047F0B5002260
:10449000144D134605EB021426685EB10768BE4250
:1044A00009D166688768BE4205D1A4684669B442EE
:1044B00004D000E00123521C022AEBD3022A01D0CF
:1044C00069B904E04BB9022907D01220F0BD05EB11
:1044D00002108089B0F5807F01D00020F0BD10204F
:1044E000F0BD0000E40F002030B50021054B0C4664
:1044F00003EB01121568854200D11460491C0229A2
:10450000F6D330BDE40F00200268490AC06A528920
:10451000B1FBF2F1001D04C81AB1914203D3891A0C
:10452000F8E7002070470068084470478269891ED8
:10453000921E8A4201D800207047C26A408901FB5E
:10454000002070472DE9F05F82460C4601F11A0009
:1045500001F0A0F978BB2078012700F03F00401E51
:1045600000EB8001DFF8589001EBC00500264FF604
:10457000FF7B00BF19F80600204401F08BF980464C
:104580006FB1FF2D17D200F089FE07463AF81500EB
:104590006D1C00F083FE87420DD1474601E0D845EF
:1045A00009D1761C0D2EE5D32078400606D52FB113
:1045B0003AF8150010B10020BDE8F09F0120FBE79C
:1045C000685D00082DE9F04105680F00804606D0BF
:1045D00001F082F8022809D20120BDE8F0812E699D
:1045E00016B1A869B04207D8012605E0411CF4D0F5
:1045F000A9698142F1D83E463446A869641CA042AC
:1046000002D80224022E0AD32146404601F064F863
:1046100038B10128E1D0411CDFD0B442EDD10020F7
:10462000DBE74FF0FF3632462146284601F01EFAFE
:1046300030B957B122463946284601F017FA20B161
:1046400001280FD001242046C7E72C61D5E90501D8
:10465000891E884201D8401E6861287940F0010017
:104660002871F0E73446EEE72DE9F84F82460068FE
:104670000F680024C66888462546785D6D1C202892
:104680002AD32F2823D05C2821D0FF2C49D2A0F197
:1046900081017D290BD8795D6D1C01EB0020A1F112
:1046A000400280B23F2A02D380397F2939D20121CA
:1046B00000F0CEFD5FEA000933D0B9F1800F12D2CD
:1046C000014675A0FFF7DAFE58BB0CE06D1C795D62
:1046D0002F29FBD05C29F9D07A19C8F800202028AE
:1046E00005D204250FE026F81490641CC5E70025C8
:1046F00009E000BF06EB440030F8020C202801D08E
:104700002E2802D1641E002CF4D1002026F81400BB
:104710003CB10B2220210AF1240001F087F9002787
:1047200003E00620BDE8F88F7F1C36F8170020282C
:10473000FAD02E28F8D01FB145F0030500E0641E22
:104740002CB106EB440030F8020C2E28F7D14FF0C4
:1047500000094FF0080BCDF8009000BF36F81700A5
:1047600007F101075FEA000824D0B8F1200F04D058
:10477000B8F12E0F04D1A74202D045F00305EDE7B2
:104780000098584501D2A74219D1BBF10B0F0FD0A9
:10479000A74201D045F003050CD84FF00800009067
:1047A0004FEA896027464FF00B0B4FEA1069D5E7B7
:1047B00045F003059AF82400E52849D04BE040462F
:1047C000B8F1800F07D300F069FD002100F040FD33
:1047D000804645F00205B8F1FF0F13D90099ABF1FF
:1047E0000100814204D345F00305CDF800B0B5E7E0
:1047F0000AEB01004FEA182280F824200098401CA0
:1048000000901CE0B8F1000F04D0014625A0FFF78E
:1048100035FE20B14FF05F0845F003050FE0A8F129
:104820004100192802D849F0020908E0A8F1610006
:10483000192804D8413049F001091FFA80F8009A7C
:104840000AEB020181F824800098401C009085E763
:1048500005218AF82410BBF1080F03D14FEA8960C3
:104860004FEA1069C9F38100032803D06FEA0901F8
:10487000890701D145F00205A90709D409F0030110
:10488000012901D145F01005012801D145F00805A5
:104890008AF82F50002045E7222A3A3C3E3F7C7F91
:1048A000000000002B2C3B3D5B5D0000401E0228F9
:1048B00012D20A4901EB00118889B0F5807F05D03A
:1048C00008B1401E80B2888110B103E00020FAE7F1
:1048D000002008600020704702207047E40F00208D
:1048E0002DE9F04704460021D0F8009000F0CCF903
:1048F00000285BD1FF25471EA84627634846E1698B
:1049000001F09BF8060050D1216A087850B1CA7AAC
:10491000E52802F03F02A2713FD0130704D50F2A09
:104920003BD105E0042640E00F2A01D0E5B120E0AC
:1049300094F82F20520632D4420606D591F80D8005
:1049400000F0BF00626905462263A84209D14A7B94
:10495000424506D1D9F80C00FFF7F4FD08B16D1EF1
:1049600000E0FF25EDB21AE0084601F04EF940459F
:104970001BD094F82F00C0070FD1D4F8201004F1F9
:1049800024000B2211F8013B10F8015B5B1B521E47
:1049900002D0002BF6D000E03BB1FF2527630021B9
:1049A000204600F005F80600A8D03046BDE8F087A4
:1049B0002DE9F047054647690468C06989462037F4
:1049C00010B1B7F5001F02D30420BDE8F087F90548
:1049D00060D1401CE861A9694FF0000829B16089E5
:1049E000401E10EA572F05D054E02089B0EB571F26
:1049F0001DD94FE0284600F06FFE064601281BD95E
:104A0000701C33D0A069B0423ED8B9F1000F0ED06F
:104A10002846A969FFF7D6FD06000BD0012E0BD062
:104A2000701C23D0204601F041F9F8B906E0C5F822
:104A30001C80C9E70720C8E70220C6E74FF40072D0
:104A4000002104F1340000F0F1FF4FF0000831467E
:104A50002046FFF76BFD4FF0010920630DE000BF1A
:104A600084F80390204601F021F908B10120ACE759
:104A7000206B08F10108401C206361894145EFD893
:104A8000216BA1EB0800206331462046AE61FFF7A1
:104A90004DFDE861C7F30800204434306F6128629F
:104AA000002092E72DE9F04F0446D0F8009090F8EE
:104AB0002F0089B010F0A00F03D0062009B0BDE888
:104AC000F08F0025D9F80C0000E06D1C30F81510AF
:104AD0000029FAD104F124010C226846039100F068
:104AE0009BFF9DF80B00C00719D0402084F82F00D1
:104AF000012633466946D9F80C20039800F0A6FD3C
:104B00002046FFF7EDFE10B9761C642EF1D3642E1B
:104B10000FD00428D2D19DF80B0084F82F009DF807
:104B20000B00800707D50D200C35B5FBF0F56D1C8B
:104B300002E00720C2E7012500212046276800F097
:104B4000A3F888B900263846E16900F076FF58B925
:104B5000206A0078E5280AD048B1002601212046C5
:104B6000FFF726FF0028EED0042812D012E0761CB2
:104B70002846AE42F2D1451E059567D0616968426C
:104B800001EB4011204600F07FF85FEA000803D0F7
:104B900076E00720804673E0039801F036F84FF680
:104BA000FF7B07904846E16900F047FF5FEA000895
:104BB00066D1D9F80C0006900598D4F82080C0B2D0
:104BC0000490079988F80D100F2188F80B10002128
:104BD00088F80C1008F11A0001F013F80498DFF8B7
:104BE000A4A0401E00EB800101EBC006002701E0FD
:104BF0005D4503D0069830F81650761C1AF8071059
:104C000001EB0800294600F0FCFF05B95D467F1C5A
:104C10000D2FEDD35D4505D0069830F8160008B18C
:104C2000049803E0049840F04000049088F80000E5
:104C3000012189F8031000212046FFF7B9FE5FEA41
:104C400000081DD10598401E0590ABD14846E1698A
:104C500000F0F3FE5FEA000812D120220021206A52
:104C600000F0E4FE0B22206A039900F0D5FE94F8D0
:104C70002F00216A00F018000873012089F8030052
:104C800040461BE7685D00082DE9F04107680E46C5
:104C90000546B1F5001F36D2F00634D16E61AC681E
:104CA00024B93878032805D3BC6A1CB178894FEA47
:104CB000402812E03889B0EB561F24D9B86A12E0B8
:104CC000284600F009FD0446401C1AD0022C1AD3D5
:104CD000B869A04217D9A6EB080646452146EFD28F
:104CE0003846FFF723FCC5E9064060B100EB5620CB
:104CF000E861C6F308003844343028620020BDE87B
:104D0000F0810120FBE70220F9E70000084910B517
:104D10000B5C002253B901220A540A1801EB8000EF
:104D2000127A40680168104688470246104610BD56
:104D30000410002030B4054C231804EB80001B7ACB
:104D4000406804691846A44630BC6047041000203F
:104D500030B4054D2C1805EB8000247A4068856836
:104D60002046AC4630BC604704100020044A1118AD
:104D700002EB8000097A406842680846104700004C
:104D80000410002030B4054D2C1805EB8000247A67
:104D90004068C5682046AC4630BC6047041000201F
:104DA00038B5044600F046F900280CD16946204683
:104DB00000F0A5FF002806D12069FFF777FD002845
:104DC00001D10021216038BD2DE9F74181B0904625
:104DD00002980090684600F0E0FC040003D50B2028
:104DE00004B0BDE8F0810D4E002756F824501DB1E7
:104DF0002846FFF779FB2F700198002800D0077034
:104E000046F8240002D0B8F1010F01D00020E7E7F6
:104E1000002201A902A800F081FAE1E720000020A9
:104E20002DE9F743ADF5147D05000BD002F03F06E8
:104E30003246694695A800F071FA04004FF0000868
:104E400005D0EFE009200DF5177DBDE8F08300984F
:104E500010A90190C16001A8959900F089FB040098
:104E60000ED19DF83300000601D5062408E0700835
:104E700001D0012100E0002101A8FFF707FB044653
:104E800016F01C0F5DD04FF00109C4B1042C10D1F5
:104E90000020674902E0401C022804D201EB001206
:104EA0001268002AF7D1022807D001A8FFF7FAFDFF
:104EB000044646F008065CB1B4E01224B2E09DF866
:104EC0000A0010F0110F47D1700701D50824A9E09E
:104ED000300747D500F05FFC0746099839460E3089
:104EE00000F087FE09983946163000F082FE0999D5
:104EF0002020C8720999009800F0AEFC07460022F5
:104F00000999009800F061FE099800211C3000F01A
:104F100070FE009981F8039017B3D1F83090002209
:104F2000394601A800F017FE04007BD149460098DD
:104F300000F083FD04000098A7F1010707610DD080
:104F400070E0ECBB9DF80A00C10601D5042469E0BD
:104F5000B10703D5C00701D0072463E0300701D5AE
:104F600046F040060098006B68620998A8627008D5
:104F700001D0012100E0002101A800F02DFC2861F2
:104F8000B8B30999009800F067FCA86009981C3034
:104F900000F075FCC5F82C80E86000992960009944
:104FA00005F130004FF40072C988A9802E7585F88C
:104FB0001580C5F8208000218146C5F8188000E0E2
:104FC00030E000F033FDB0062ED5EE6866B3AE617A
:104FD0000098A968408947020FE0284600F07CFB52
:104FE0000146012800D80224481C03D0F61B24B136
:104FF00005E01BE00124F61B01E0BE42EDD8E961AB
:1050000084B9F00510D00098FFF790FA70B100EB6A
:1050100056222A620098012349464078FFF798FEFD
:1050200010B10124C5F8008020460CE70224F9E7FE
:10503000E40F0020F8B50446694600F060FE002841
:105040000ED1217D4A060BD508060ED50098226A9E
:105050000123407804F13001FFF794FE08B10120EC
:10506000F8BD207D00F07F00207500F094FB06461F
:10507000616A009800F0E1FC0028F1D1A56A294698
:10508000E87A40F02000E872A268206800F09DFDF8
:1050900005F11C00E16800F0ACFD314605F1160099
:1050A00000F0A7FD002105F1120000F0AAFD009814
:1050B0000121C17000F0B6FD217D01F0BF01217515
:1050C000F8BD2DE9FE4F0446002088461860994639
:1050D000154602A9204600F012FE002806D1607D88
:1050E000002803D1207D800702D40720BDE8FE8F71
:1050F000A069012742194FF0020A04F1300B8242E5
:1051000000D2C5439BE0A169C80575D102984089CA
:10511000401E10EA512618D129B1E06A38B1204664
:10512000FFF7F2F907E0A06838B9002100E0E16973
:105130002046FFF747FA00287DD001282DD0411CDA
:1051400054D0E061A16801B9A060207D00060BD5B4
:105150000298226A012340785946FFF713FEA0BB4C
:10516000207D00F07F002075E1690298FFF7DEF9ED
:1051700098B130440190680A009027D03218029804
:1051800041898A4201D9891B0091DDE900324078CA
:105190004146FFF7F7FDC0B903E084F815A00220EF
:1051A000A4E7216A0198081A009988420AD208EBFC
:1051B00040214FF40072584600F02EFC207D00F094
:1051C0007F0020750098460228E00FE0216A0198D0
:1051D00081420FD0E168A06988420BD20298012376
:1051E00059464078019AFFF7B3FD18B16775012061
:1051F0007CE701E001982062208BC0F30800C0F535
:105200000076AE4200D92E46204432464146303028
:1052100000F002FC207D40F080002075A069B044C1
:105220003044A061E168884200D80846E060D9F8BF
:105230000000811900E005E0AD1BC9F80010002D49
:105240007FF461AF207D40F04000207500204DE7E5
:1052500070B580281BD345F2205309B10D4D00E0F5
:105260000D4D002110245A1A02EBD27201EB62029A
:1052700035F82260864206D001D2114600E013467E
:10528000641EF0D104E01CB105EB8200408870BDC3
:10529000002070BD16B20108925D000830B5B0F56F
:1052A000805F01D21B4900E01B4931F8022B002A24
:1052B00015D0904213D331F8024B230AE5B252FACB
:1052C00084F4844221D9092B09D2DFE803F00509CF
:1052D0000E11131517191B00801A31F8100030BD7C
:1052E000811A01F00101401A00E0103880B230BD8F
:1052F0002038FBE73038F9E71A38F7E70830F5E7E8
:105300005038F3E7A0F5E350F0E7002BCDD101EBE7
:105310004501CAE79A0603088C0803082DE9FF41F6
:10532000002790460E460F6000F037FA050003D5BF
:105330000B2004B0BDE8F0818A4850F825409CB1AC
:105340003460207808F0FE0620B16078FFF70EFD8B
:10535000C1070BD02770E8B2B8466070FFF7D6FCE3
:10536000C10708D00320E4E70C20E2E70EB14007B4
:1053700004D40020DDE71EB1400701D50A20D8E79C
:10538000002631462046FFF741F8022822D10025A9
:105390004FEA0D0704EB051090F8F61100F5F970CF
:1053A00019B1083000F06BFA00E0002047F8250042
:1053B0006D1C042DEED3002557F8256036B131461B
:1053C0002046FFF723F8022801D203E003206D1CDA
:1053D000042DF1D3042809D002286DD204F13F0036
:1053E00000F058FAB0F5007F66D101E00120A0E797
:1053F00004F14A0000F04EFA18B904F1580000F028
:105400003EFAE06194F84450A570012D01D0022DC0
:1054100052D1454394F841006081E8B3411E0842EF
:105420004AD104F1450000F035FA2081000743D14C
:1054300004F1470000F02EFA070004D104F15400F3
:1054400000F01DFA074604F1420000F023FA0100C3
:1054500032D02389481900EB131297422CD3B81A83
:105460006789B0FBF7F0B8B103274FF6F57C6045CC
:1054700000D8022740F6F57C604500D80127801C43
:105480003244E2623144A061C4E90861032F15D0BF
:1054900013B12944A16200E00EE0022F1FD000F0FA
:1054A000010100EB400001EB500000BFE16900F298
:1054B000FF10B1EB502F14D20D203AE704F15E003B
:1054C00000F0E8F90028F7D120890028F4D104F190
:1054D000600000F0D4F9A062A0698000E6E7400017
:1054E000E4E74FF0FF306061206180202071032FDE
:1054F0002CD104F1640000F0CDF9012826D1711CF3
:10550000204600F09AFA08BB84F8048004F23220A6
:1055100000F0C0F9A0F52A41553917D104F1340043
:1055200000F0ADF91049884210D104F5067000F082
:10553000A6F90E49884209D104F5077000F09FF9D9
:10554000606104F5087000F09AF920610549277040
:10555000091F0888401C0880E0802046FEF7C4FF31
:1055600007E7000020000020525261417272416141
:1055700073B504460568019801E0401C019001786C
:105580002F29FAD05C29F8D00021A1600198007879
:10559000202806D2802084F82F002046FFF774FBD5
:1055A0007CBD01A92046FFF75FF80028F8D120460E
:1055B000FFF796F994F82F1028B10428F0D1490785
:1055C000EED405207CBD4907FCD4A079C006F8D5EF
:1055D000A08AC0F3080041192846343100F03CF994
:1055E000A060DEE713B54FF6FF730122694602485B
:1055F000FCF7A6F81CBD0000B408002010B5002878
:1056000021D0114B0022001F196803E0814203D80A
:105610000A4649680029F9D152B11368841A9C429C
:1056200004D1006818441060104602E0506000E0A9
:10563000186039B102680B1A934203D10B681A44FF
:1056400002604968416010BD480000207CB51646E4
:105650001C4605460B2200F0DFF9052C11D91D4A26
:105660000CE00021B61C2346044663F35F044008A7
:10567000E30300D55440491C1029F4D33088002896
:10568000EFD107214FEA0D0304F00F003030392825
:1056900000D9C01D5854491E2409F5D17E2000228E
:1056A00058544C1E06E081387D2802D8A24206D00C
:1056B000521C521C8A4202D2A85C2028F3D108292D
:1056C00002D2585C491C00E02020A854521C082A31
:1056D000F5D37CBD211001002DE9F04104680D4691
:1056E00002290BD3A069A84208D920784FF0FF36D1
:1056F000012807D002282BD0032839D001263046B4
:10570000BDE8F081606A05EB550700EB57212046A4
:1057100000F093F90028F2D1C7F3080020447F1C61
:1057200090F83480606A00EB5721204600F085F93C
:105730000028E4D1C7F30800204490F8341048EA68
:105740000120E90701D00609D9E7C0F30B06D6E727
:10575000606A00EB1521204600F06FF90028CED1D9
:10576000E8B204EB4000343000F094F80646C6E797
:10577000606A00EBD511204600F05FF90028BED129
:1057800040F2FF1000EA85002044343000F077F842
:1057900020F07046B3E70020704710B504464FF084
:1057A000FF302268002A13D0114600E0491C0B7814
:1057B000202B0ED33A2BF9D112F8013B303B0A2BA8
:1057C00006D28A4204D1002B02D1491C184621601E
:1057D00010BD002010BD0000F0B502461D4BD2F8F0
:1057E0000050002003EB00142668AE4207D1666823
:1057F0009768BE4203D1A4685669B44202D0401CE7
:105800000228EFD3022814D1002002E0401C022815
:1058100004D203EB00142468002CF7D102280ED028
:1058200003EB00142560956865605269A260002250
:10583000A281002903EB0011898902D019B100204F
:10584000F0BD491C01E04FF4807103EB0012401CD5
:105850009181F0BDE40F002070B506460D4601F1C0
:105860001A0000F017F804463078032805D105F136
:10587000140000F00FF844EA0044204670BDC178DF
:10588000827842EA01214278007842EA012140EA26
:10589000012070474178007840EA012070470000FD
:1058A0008EB0302224A16846FAF7CDFCFBF798FAB7
:1058B000FCF71AFBFCF794FAFCF76EFAFCF7C6FA51
:1058C000FCF780FAFCF7DEFA27480068C16841F06F
:1058D0001001C1604FF4806224492348FBF7E2FEC7
:1058E00023A0FEF75BFD254C5FF00305FCF7EAFA09
:1058F00020780228FAD122A0FEF750FD0022244988
:105900002448FFF761FA70B90A2223A12548FFF75E
:1059100087FA40B90CAB2D2269462248FFF7D1FB2C
:105920000C9901B118B12048FEF738FD02E01D487E
:10593000FFF736FA2570D9E75468652073697465F6
:105940002069732053544D3332637562652E636F43
:105950006D20776F726B696E672077697468204677
:105960006174467300000000B4080020B4040020F5
:1059700068656C6C6F2070700A00000006000020E3
:1059800068656C6C6F20756469736B0A00000000B9
:10599000010000205000002073746D33322E7478A3
:1059A0007400000084020020F8030008F0B50B30FA
:1059B000154D20F007010024144A0FE003688B42C4
:1059C0000BD38B4205D95E1A43184768C3E90067B9
:1059D00000E04368136002C004E0021D1068002864
:1059E000ECD12046002802D1286808B10020F0BD83
:1059F000064A07481060074A121A22F00702C0E957
:105A0000002401202860D7E74C0000204800002037
:105A10001410002010120020002A05D011F8013BBC
:105A200000F8013B521EF9D1704700005FFA81F186
:105A300000F8011B521EFBD1704770B50446006B85
:105A40000D460026A8420FD0204600F02FF9060090
:105A50000AD1607801232A4604F13401FFF778F96E
:105A600008B1751E01262563304670BD2DE9F0474B
:105A7000022617460D460446022969D3A069A842AA
:105A800066D920784FF00109012804D0022836D0C9
:105A900003285DD143E0616A05EB550801EB58210D
:105AA0002046FFF7CAFF060052D1C8F30800204481
:105AB000343008F10108E90704D00178FAB262F342
:105AC0001F1100E03946017084F80390616A204696
:105AD00001EB5821FFF7B1FF060039D1C8F30800E8
