:020000040800F2
:10000000D8140020C1010008871E0008251D000823
:10001000851E000847030008893C00080000000016
:100020000000000000000000000000001520000893
:100030000504000800000000132000081720000835
:10004000DB010008DB010008DB010008DB01000820
:10005000DB010008DB010008DB010008DB01000810
:10006000DB010008DB010008DB010008DB01000800
:10007000DB010008DB010008DB010008DB010008F0
:10008000DB010008DB010008DB010008DB010008E0
:10009000DB010008DB010008DB010008DB010008D0
:1000A000DB010008DB010008DB010008DB010008C0
:1000B000DB010008DB010008DB010008DB010008B0
:1000C000DB010008DB010008DB010008DB010008A0
:1000D000DB010008CD250008DB010008DB0100087A
:1000E000DB010008DB010008DB010008DB01000880
:1000F000DB010008DB010008DB010008DB01000870
:10010000DB010008DB010008DB010008DB0100085F
:10011000DB010008DB010008DB010008DB0100084F
:10012000DB010008DB01000855030008DB010008C3
:10013000DB010008DB010008DB010008DB0100082F
:10014000DB010008DB010008DB010008DB0100081F
:10015000DB010008DB010008DB010008DB0100080F
:10016000DB010008DB010008DB010008DB010008FF
:10017000DB010008891E0008DB0100080000000008
:10018000DB010008DB010008DB010008DB010008DF
:10019000DB010008DB010008DB010008DB010008CF
:1001A000DB010008DB010008DB010008DFF80CD0F0
:1001B00000F08CF800480047293E0008D8140020C1
:1001C0000648804706480047FEE7FEE7FEE7FEE7F1
:1001D000FEE7FEE7FEE7FEE7FEE7FEE7A1200008F8
:1001E000AD0100082DE9F05F0546002092469B46D0
:1001F00088460646814640241BE02846414647463D
:10020000224600F053F853465A46C01A914110D383
:1002100011461846224600F03AF82D1A67EB0108FD
:100220004F4622460120002100F031F817EB00096B
:100230004E41201EA4F10104DFDC484631462A4627
:100240004346BDE8F09F40EA01039B0703D009E065
:1002500008C9121F08C0042AFAD203E011F8013BB2
:1002600000F8013B521EF9D27047D2B201E000F80B
:10027000012B491EFBD270470022F6E710B513464A
:100280000A4604461946FFF7F0FF204610BD202A13
:1002900004DB203A00FA02F1002070479140C2F1DD
:1002A000200320FA03F3194390407047202A04DB0F
:1002B000203A21FA02F00021704721FA02F3D040DF
:1002C000C2F120029140084319467047064C074D81
:1002D00006E0E06840F0010394E807009847103416
:1002E000AC42F6D3FFF766FF443F0008643F0008C6
:1002F00070B58C1810F8015B15F0070301D110F8E8
:10030000013B2A1106D110F8012B03E010F8016B14
:1003100001F8016B5B1EF9D12B0705D40023521E97
:100320000DD401F8013BFAE710F8013BCB1A921CFF
:1003300003E013F8015B01F8015B521EF9D5A142FD
:10034000D8D3002070BDFEE7002070470020704722
:1003500000207047014800F0B1B80000D00500202F
:1003600001681823CAB2103AB2FBF3F2054B6FF3DF
:100370000901032A9B5CC36500D9091D81650846F4
:1003800070470000243F000810B5014600208B692B
:100390008A6A4FF0C07453B1B3F5005F15D072B1E3
:1003A000012A0CD0022A0AD0032A09D104E01AB18A
:1003B000012A06D0022A03D1C96AC90100D5012049
:1003C00010BDC96AA142FAD010BD002AF7D0012A97
:1003D000F2D0022AF3D0032AF3D010BD30B504685E
:1003E000256825F480252560046863608368402BB8
:1003F000036803D099600068C26030BD9A600068ED
:10040000C16030BD704770472DE9F0410446876DEB
:1004100000F0C8FA064694F835000025022806D0F8
:100420008020606584F834500120BDE8F0812068A8
:10043000016821F0160101602068416921F0800106
:100440004161206C08B9A06C20B12068016821F0DE
:10045000080101602068016821F0010101600BE0E2
:1004600000F0A0FA801B052806D92020606504F85A
:10047000345F03206070D8E720680068C007EFD1C0
:1004800094F85C103F208840B86004F8345F012085
:1004900060700020C9E790F83510022903D0802150
:1004A000416501207047052180F83510006801681A
:1004B00021F0010101600020704700002DE9F843A0
:1004C00004464FF00009CDF8009063484FF41651F0
:1004D000A56D0068B0FBF1F72E6894F85C10082059
:1004E00000FA01F131420FD021680A6852070BD59A
:1004F0000A6822F004020A6094F85C108840A86040
:10050000606D40F00100606594F85C104FF00108E8
:1005100008FA01F0304208D021684969090604D57B
:10052000A860606D40F00200606594F85C100420E3
:100530008840304208D021680968890704D5A8603E
:10054000606D40F00400606594F85C1010208840F5
:10055000304218D021680968090714D5A8602068BE
:100560000168490304D50068000308D5A16C07E0C1
:100570000168C90503D4016821F008010160216CFC
:1005800009B12046884794F85C102020884030420A
:1005900031D021680968C9062DD5A86094F83500C6
:1005A00005282068016806D0490347D50068000384
:1005B0001DD4616C1CE021F01601016020684169C6
:1005C00021F080014161206C08B9A06C20B1206845
:1005D000016821F00801016094F85C103F20884018
:1005E000A86084F8349084F83580216D1FE0E16BB9
:1005F00009B120468847606D00282BD0606DC00788
:1006000014D0052084F835002068016821F001012C
:1006100001600098401C0090B84203D82068006830
:10062000C007F6D184F8349084F83580E16C002955
:1006300010D001B02046BDE8F04308470168C90565
:10064000D5D4016821F01001016084F8349084F859
:100650003580CCE7BDE8F883A80000202DE9F04103
:10066000044600F09FF906465CB1002584F834503A
:10067000022084F835002068016821F00101016042
:100680000DE00120BDE8F08100F08CF9801B052809
:1006900005D920206065032084F83500F2E7206842
:1006A0000068C007F0D12268116820480140D4E9F1
:1006B00001031843D4E903363343184363691843ED
:1006C000A3691843E3691843236A18430843616A1E
:1006D000042903D1D4E90B1319430843106020689F
:1006E0004069666A20F0070130460E43012704285E
:1006F0000CD1A06A0643E06A40B12046FFF744FEF1
:1007000020B14020606584F83570BAE72068466102
:100710002046FFF725FE94F85C203F219140816040
:10072000656584F835700020ACE700003F8010F06C
:100730002DE9F0410446866D90F83400002501282B
:100740000DD0012084F8340094F835700020012F7A
:1007500007D084F8340002252846BDE8F081022045
:10076000FBE7022784F8357060652046FFF736FE08
:1007700094F85C103F208840B0602068016841F028
:10078000160101602068416941F080014161206CDF
:1007900020B12068016841F008010160206801680B
:1007A00041F001010160D7E770B5044600F0FAF8A6
:1007B0000546601C02D004480078044400F0F2F8BA
:1007C000401BA042FAD370BD9C0000202DE9F84FD9
:1007D000DFF890B100224FF001084FF0030A4FF00C
:1007E0000F090BF1040E00BF0B6808FA02F4234056
:1007F000A3426ED14D68022D01D0122D0ED1D50825
:1008000000EB850CDCF820505607F70E09FA07F6C6
:10081000B5430E69BE402E43CCF8206006685500F3
:100820000F790AFA05FC07F0030726EA0C06AF4029
:10083000374307604E68012E05D0022E03D0112EDB
:1008400001D0122E0ED18768CE6827EA0C07AE4081
:100850003E4386604668A6430C79C4F30014944076
:1008600034434460C4688E6824EA0C04AE402643D6
:10087000C6604C68E4006FD53B4C256845F4804564
:100880002560246822F0030504F480440094374C6A
:100890002E19D6F8084895072F0F09FA07F5AC432B
:1008A000334DA84201D100252EE0324DA84201D19E
:1008B000012529E0304DA84201D1022524E02F4D29
:1008C000A84201D103251FE02D4DA84202D10425E5
:1008D0001AE041E02B4DA84201D1052514E02A4D34
:1008E000A84201D106250FE0284DA84201D10725D5
:1008F0000AE0274DA84201D1082505E0254DA84270
:1009000001D1092500E00A25BD402543C6F8085855
:10091000DBF800405D464E689C43F60300D51C435F
:100920002C60DEF8004075464E689C43B60300D547
:100930001C432C600B4D08352C684E689C43F60216
:1009400000D51C432C60074D0C352C684E689C4329
:10095000B60200D51C432C60521C102AFFF444AF91
:10096000BDE8F88F003C01404438024000300140AF
:10097000000002400004024000080240000C024057
:10098000001002400014024000180240001C024007
:1009900000200240002402400AB18161704709042E
:1009A000FBE7000001488068704700009C000020C1
:1009B0000248816802781144816070479C000020E1
:1009C0000B4810B5016841F400710160016841F401
:1009D00080610160016841F480710160032000F0D2
:1009E0006FF8002000F006F800F024F8002010BD99
:1009F000003C024070B50D4D04464FF47A712878E2
:100A0000B1FBF0F00A490968B1FBF0F000F086FF95
:100A100048B9102C07D200222146501E00F030F8B1
:100A200000206C6070BD012070BD00009C000020A3
:100A3000A80000200A4808B5016841F4804101601F
:100A4000006800F4804000900548001F016841F0F4
:100A500080510160006800F08050009008BD0000E7
:100A600044380240002809DB00F01F0201219140B8
:100A70004009800000F1E020C0F80011704700003C
:100A8000F0B40E4B1B680C46C3F30223C3F10705F9
:100A9000042D00D90425191D072901D2002300E0E7
:100AA000DB1E012606FA05F1491E214099409E40B1
:100AB000761E16403143F0BC03F0F8B80CED00E0B0
:100AC000064900F0070208684FF6FF03184040EAA5
:100AD0000220034A10430860704700000CED00E05C
:100AE0000000FA0570470068416200207047F0B5C9
:100AF0000368586A39B19C6A4FF4827600EB14445B
:100B000000204D1E0AE040EA024098620FE006EB2A
:100B10008007DF59401C04EB1744C0B2A842F6D34B
:100B200044EA02404FF4807202EB810158500020E9
:100B3000F0BDD0F8040402F0DDB8C1EBC10200EB57
:100B40008202D0F80404926C02F030B8C1EBC1020A
:100B500000EB8202D0F80404D2F8082202F089B82F
:100B6000D0F8040402F0C8B870B504460B0601F0D2
:100B70000F00C0EBC00104EB81014FF001024FF008
:100B8000000503D581F83D203C3103E081F8FD519B
:100B900001F5FE71087094F8BC03012808D084F8B0
:100BA000BC23206802F03CFC84F8BC53002070BDDC
:100BB000022070BD70B5044601F00F0062689042DB
:100BC00001D9012070BD0B0601F00F01C1EBC1017D
:100BD00004EB81014FF001024FF0000503D581F8CD
:100BE0003D203C3103E081F8FD5101F5FE718D702F
:100BF000087094F8BC03012808D084F8BC2320684E
:100C000002F0E4FD84F8BC53002070BD022070BDEA
:100C10002DE9F04104460F0601F00F00C0EBC001C2
:100C200004EB81014FF001064FF0000503D581F878
:100C30003D603C3103E081F8FD5101F5FE71087023
:100C40008A60CB704A7802B1C880022B00D10D7146
:100C500094F8BC03012809D084F8BC63206802F032
:100C60002FFB284684F8BC53BDE8F0810220FBE747
:100C700070B50C4601F00F05C5EBC50100EB810115
:100C8000C1F81032C1F808220023C1F8143281F8EB
:100C9000FD3181F8FC51036901F5FE71012B00D192
:100CA0000A612207027C006803D002F0E7FD002001
:100CB00070BD02F0D9FCFAE770B504460D4601F0AC
:100CC0000F006168884201D9012070BD29064FF0EC
:100CD00000064FF0010207D5C0EBC00104EB810113
:100CE00081F83D203C3107E0C5EBC50104EB8101F3
:100CF00081F8FD6101F5FE718A70087094F8BC03FB
:100D0000012807D084F8BC23206802F08BFD280757
:100D100002D007E0022070BD217C04F571722068CA
:100D200002F028FD84F8BC63002070BD70B50C464D
:100D300001F00F05C5EBC50100EB81010B658A646D
:100D400000234B65012381F83D3001F83C5F0369C6
:100D5000012B00D10A612207027C006803D002F057
:100D60008DFD002070BD02F07FFCFAE72DE9FC5FED
:100D700004460068002681464D4602F098FE002891
:100D80007ED1206802F0BFFE002879D0206802F0F2
:100D9000BAFE800704D52068416901F00201416173
:100DA000206802F0B0FE010304F571704FF0010BF2
:100DB000009076D5206802F085FE0746DFF810A483
:100DC0006DE0F80769D0F1B2206802F094FE804629
:100DD000C00707D005EB4611C1F808BB31462046D5
:100DE00001F058F85FEA087033D52068016C00EB19
:100DF00046100191D0F8081B2269012A019A0FD0F0
:100E0000F44B9A4214D1090403D54FF40041C0F8C1
:100E1000081B204600F0C4FA206901280FD013E017
:100E2000524505D9090403D54FF40041C0F8081B09
:100E3000204600F0B5FA01985045EDD804E020684E
:100E40000121009A02F096FC05EB46110820C1F83A
:100E5000080B5FEAC86004D505EB46111020C1F805
:100E6000080B5FEA88600FD52069012804D120684B
:100E70000121009A02F07EFC202005EB461101E0E2
:100E8000A4E10EE0C1F8080B5FEA884005D505EB48
:100E900046114FF40050C1F8080B7F08761C002F54
:100EA0008FD1206802F02FFE40034FF0000A60D57A
:100EB000206802F000FE0746002658E0F80754D0EC
:100EC000F1B2206802F005FE8046C00726D006F089
:100ED0000F020BFA02F0D5F834288243C5F8342803
:100EE00005EB4610C0F808B92069012807D1C6EB08
:100EF000C60004EB8000D0E9112111448164F1B2F5
:100F00002046FFF71AFE2069012807D136B9206D67
:100F100020B920680121009A02F02CFC5FEA0870D9
:100F200004D505EB46110820C1F808095FEAC8603E
:100F300004D505EB46111020C1F808095FEA4860A6
:100F400004D505EB46114020C1F808095FEA887016
:100F500004D505EB46110220C1F808095FEA0860D4
:100F600003D53146204601F003F87F08761C002F98
:100F7000A4D1206802F0C7FD002811DAD5F80408D2
:100F800020F00100C5F8040894F8F40301282BD0E0
:100F9000204600F0E9F92068416901F00041416113
:100FA000206802F0B0FD00050BD5D5F80808C00791
:100FB00002D0204600F01CFA2068416901F400616B
:100FC0004161206802F09FFDC0045DD5D5F804089A
:100FD00020F00100C5F804081021206802F048FD47
:100FE00000214FF67F321AE084F8F4A30021204656
:100FF000FFF778FDCFE700BF05EB4110C0F80829E7
:10100000D0F8003923F40013C0F80039C0F8082BD9
:10101000D0F8003B23F40013C0F8003B491C606883
:101020008842E9D8D5F81C0840F00110C5F81C0822
:10103000206B60B1D5F8840840F00B00C5F8840837
:10104000D5F8440840F00B00C5F844080CE0D5F88A
:10105000140842F22B010843C5F81408D5F810080B
:1010600040F00B00C5F81008D5F8000820F4FE6029
:10107000C5F80008217C2068009A02F07BFB2068FC
:10108000416901F480514161206802F03CFD800417
:1010900018D5206802F054F9206802F0FBFC60B318
:1010A0000320E06000F054FA23680146227B1846D2
:1010B00002F064FD204600F041F92068416901F426
:1010C00000514161206802F01EFDC00638D520683D
:1010D000816921F010018161D9F8207007F00F00BB
:1010E000C0EBC00004EB8005C7F3434005F5FE7577
:1010F000022805D0062814D01DE0C4F80CA0D1E7C2
:1011000047F6F0710F4216D0C7F30A121746484649
:10111000E96802F0FCFCE8683844E860A8693844F3
:1011200008E008224846009902F0F1FCA869C7F3DC
:101130000A110844A8612068816941F010018161A9
:10114000206802F0E0FC000707D5204600F010F907
:101150002068416901F008014161206802F0D3FC78
:10116000C00208D5F1B2204600F036F82068416987
:1011700001F480114161206802F0C5FC800208D5AD
:10118000F1B2204600F02CF82068416901F400110A
:101190004161206802F0B7FC400007D52046FFF708
:1011A000C8FC2068416901F080414161206802F07B
:1011B000AAFC40070AD520684568680702D5204682
:1011C000FFF7CEFC2068416829434160BDE8FC9FE1
:1011D0000A30544F0A31544FD0F8040401F0DCBDFA
:1011E000D0F8040401F0DABD2DE9F0418AB0040022
:1011F00004D094F8BD03002520B108E001200AB016
:10120000BDE8F08184F8BC53204600F05BF8032071
:1012100084F8BD03206802F021FA04F110012822AD
:1012200088466846FFF70FF894E80F0002F0A2F82E
:101230000226D0BB0021206802F077FC00200127A5
:101240000FE000BFC0EBC00104EB810181F83D70ED
:1012500001F83C0FC880CD708D60CD60401CC0B2DD
:101260004D6161688142EDD8002011E0C0EBC00102
:1012700004EB810181F8FD5181F8FC0181F8FF51F7
:10128000C1F80452C1F80852401CC0B2C1F8105253
:1012900061688142EAD8282241466846FEF7D3FFBA
:1012A00094E80F0002F014F910B184F8BD63A5E7CB
:1012B00084F8385084F8BD73206802F0FDF80020EF
:1012C0009DE7000010B586B0044614216846FEF77D
:1012D000D3FF17492068884227D1164C0020216887
:1012E00041F002012160216801F0020105914FF4F3
:1012F000404100910221CDE90110032003900C2010
:10130000049069460C48FFF761FA206840F00050ED
:1013100020602068002200F00050059011464D200A
:10132000FFF7AEFB4D20FFF79DFB06B010BD0000A0
:1013300000000440303802400004024070B504460A
:10134000C068012570B1022801D0FFF75CF829467A
:10135000D4F8040401F073FDD4F80404BDE870402F
:1013600001F033BD0025F2E7D0F8040401F055BDCB
:10137000D0F8040401F057BD10B5044690F8BC0342
:1013800001280BD0012084F8BC0384F838102068B1
:1013900002F0E2FB002084F8BC0310BD022010BD67
:1013A000D0F8042400F57171104601F054BD10B559
:1013B0000446006894F8BC13012906D0012184F882
:1013C000BC13A16A012902D008E0022010BDA16966
:1013D000012903D0816B41F480318163206802F0E0
:1013E0005FF8206802F02EFB002084F8BC0310BDDB
:1013F00010B50446D0F8040401F06CFD2068D0F864
:10140000001E41F00101C0F8001E206A002804D02F
:101410000248016841F00601016010BD10ED00E0D6
:101420002DE9F0470E46050065D0DFF81481D8F8A5
:101430000000F7B200F00F00B04207D288F8007049
:10144000D8F8000000F00F00B04254D128683D4C9D
:10145000810712D5400703D5206840F4E050206092
:101460002878000703D5206840F460402060206899
:10147000A96820F0F000084320602878C0072DD02C
:10148000304968680839012812D0022813D003288F
:1014900011D00968890700292DDA216821F003019C
:1014A00001432160FFF77EFA814641F2883A0EE05F
:1014B00009688903EFE709688901ECE7FFF772FA29
:1014C000A0EB0901514502D90320BDE8F08720684F
:1014D000696800F00C00B0EB810FEFD1D8F8001074
:1014E000404601F00F01B14207D90770006800F0D3
:1014F0000F00B04201D00120E7E72878400705D56A
:101500002068E96820F4E05008432060287800074C
:1015100006D52068296920F4604040EAC1002060B7
:1015200000F03CF82168084AC1F30311515CC8403F
:10153000064908600020FFF75DFA0020C5E70000BB
:10154000003C0240083802402C3F0008A800002060
:101550000148006870470000A800002004480549C1
:1015600000680968044AC1F38221515CC840704791
:10157000A8000020083802403C3F00080448054904
:1015800000680968044AC1F34231515CC8407047A1
:10159000A8000020083802403C3F0008154810B55C
:1015A000006810F00C02144813D01449042A0FD01C
:1015B000082A0ED10F4C241F2268236802F03F0234
:1015C0005B0207D52068C0F38810A0FB010106E08C
:1015D000084610BD2168C1F38811A1FB000100235A
:1015E000FEF700FE2168C1F30141491C4900B0FB30
:1015F000F1F010BD083802400024F40040787D016D
:101600002DE9F84F050076D02878DFF8F8B2BE4C07
:10161000C00749D0DBF800105846C1F38101012909
:1016200008D00068C0F3810002280AD1201D00689C
:10163000400206D52068800336D568680028E2D0CD
:1016400032E06868B0F5803F10D0B0F5A02F206878
:1016500010D020F480302060206820F480202060AA
:101660006868A0B1FFF79EF906460CE0206840F4D8
:101670008030F4E740F480202060F7E7FFF792F92C
:10168000801B642873D820688003F7D50CE0FFF72F
:1016900089F9064605E000BFFFF784F9801B64283E
:1016A000F0D820688003F7D42878DFF860828007BC
:1016B0004FF000093ED5DBF80010584611F00C0F32
:1016C00009D00068C0F3810002280BD18D48001FAB
:1016D0000068400206D42068800715D5E868012814
:1016E00009D111E0E868B8B10120C8F80000FFF79F
:1016F00059F9064605E002E1FFF754F9801B02287C
:10170000C0D820688007F7D52068296920F0F80044
:1017100040EAC10020600DE0C8F80090FFF742F9F0
:10172000064604E0FFF73EF9801B02281FD8206818
:101730008007F7D42878000722D5724E744869696B
:101740006C3671B101210160FFF72CF9074604E006
:10175000FFF728F9C01B022809D830688007F7D5A1
:101760000EE0C0F80090FFF71DF9074605E083E0A2
:10177000FFF718F9C01B02287ED830688007F7D41D
:101780002878400768D5DFF87CA100270AF1380ADD
:10179000DAF80000C0000BD4DAF8001041F08051F4
:1017A000CAF80010DAF80000012700F0805000901D
:1017B000584E3068C00510D4306840F480703060F6
:1017C000FFF7F0F8009005E0FFF7ECF80099401AF9
:1017D000022851D83068C005F6D54A4EA868683648
:1017E00001280FD00528306810D020F001003060AB
:1017F000306820F004003060A868B8B1FFF7D2F874
:1018000000900FE0306840F00100F4E740F0040081
:101810003060F7E7FFF7C6F80099411A41F28830C7
:10182000814264D830688007F4D50EE0FFF7BAF83B
:10183000009007E0FFF7B6F80099411A41F28830AE
:10184000814254D830688007F4D42FB1DAF8001000
:1018500021F08051CAF80010A869C0B3DBF800106D
:10186000C1F3810102294AD00228484607D0C8F8AE
:101870006000FFF797F800E039E005463AE0474698
:10188000C8F86000FFF78EF8064604E0FFF78AF814
:10189000801B02282BD820688001F7D4D5E90701E6
:1018A0000843A96A1C4A490802EB01416A6A41EAF5
:1018B0008211084395F82C1040EA01611148001F7D
:1018C000016001203866FFF76DF8054605E014E079
:1018D000FFF768F8401B022809D820688001F7D577
:1018E0000BE000BFFFF75EF8401B022802D903207F
:1018F000BDE8F88F20688001F4D40020F8E70120CB
:10190000F6E7000008380240003802400000474275
:10191000800E4742007000400000FFFF10B5401EDF
:10192000B0F1807F01D3012010BD4FF0E024606151
:101930000F21601702F0BAF90020A0610720206192
:10194000002010BD10B504460068416994F83920A4
:10195000C1F3C011212A0BD151B1416921F080019D
:101960004161206B08B1FEF74FFD204600F020FCDE
:101970002068416994F83A20C1F38011222A0BD1E2
:1019800051B1416921F040014161606B08B1FEF73E
:101990003BFD204600F0FEFB002010BD704700001C
:1019A00070B5026804461068D168536910F00F0FD3
:1019B00050D003F0010501F4907635435DD0C207A5
:1019C00005D0CA0503D5E26B42F00102E26342078B
:1019D00005D5DA0703D0E26B42F00202E263820728
:1019E00005D5DA0703D0E26B42F00402E263020796
:1019F00005D5DA0703D0E26B42F00802E263E26B3E
:101A0000002A33D0800604D5880602D5204600F08F
:101A1000D8FB20684069E16BC0F38010090700D44F
:101A200028B3204600F0B6FB2068416949061AD564
:101A3000416921F040014161606BA0B11B49016522
:101A4000606BFEF728FD002810D0606B016DBDE8CB
:101A500070400847830610D58B060ED52046BDE89A
:101A6000704000F0AEBB2046FFF798FF70BD2046E7
:101A7000FFF794FF0020E06370BD030606D50B0658
:101A800004D52046BDE8704000F03CBD4006F3D5CB
:101A90004806F1D5D168204621F04001D1602021CF
:101AA00084F8391000F03DF970BD0000F520000801
:101AB00070B5040004D094F83900002510B106E098
:101AC000012070BD84F83850204600F023F824200F
:101AD00084F839002068C16821F40051C1602046B3
:101AE00000F0BAFB2068016921F49041016120688F
:101AF000416921F02A0141612068C16841F4005127
:101B0000C160E563202084F8390084F83A000020A1
:101B100070BD000070B586B0064614216846FEF719
:101B2000ABFB25493068884243D124480025016831
:101B300041F010010160006800F0100005901F489E
:101B40001438016841F0010101600068694600F045
:101B5000010005904FF4C060009002200190012028
:101B6000029003200390072004901548FEF72EFEF4
:101B7000154C144820604FF00060C4E90105401482
:101B8000C4E9035080106561C4E906504002C4E90D
:101B900008052046FEF762FD08B1FEF734FC7463C9
:101BA000002203212520A663FEF76AFF2520FEF709
:101BB00059FF06B070BD00000010014044380240DB
:101BC0000000024040640240D0050020F8B5044601
:101BD00090F83A0020283CD1C1B3BAB394F8380049
:101BE000012836D0012084F83800A162A2850025A2
:101BF000E563222084F83A00636B1748D863636B6F
:101C000016481864636B1648D864606B1346056504
:101C10000846666B216802463046091DFEF788FDBE
:101C2000206801684168009184F83850C16841F427
:101C30008071C1602068416941F001014161206803
:101C4000416941F0400141610020F8BDFFE70120FA
:101C5000FBE70220F9E700004F2100088B21000874
:101C600005210008704770472DE9F843044690F8B5
:101C700039001F4616460D46202850D1A5B19EB109
:101C800094F8380001284AD0012084F838004FF039
:101C90000008C4F83C80212084F83900FEF782FE59
:101CA000A6848146E68426E00120BDE8F883E08C26
:101CB000401EE084A0684B46B0F5805F4FF0000204
:101CC0004FF080012046009703D000F04CFCE8B9AB
:101CD0000DE000F048FCC8B928882168C0F308006E
:101CE0004860206908B16D1C05E0AD1C03E0216867
:101CF00015F8010B4860E08C0028D8D14B46002233
:101D000040212046009700F02EFC08B10320CCE7CC
:101D1000202084F8390084F838800020C5E70220AC
:101D2000C3E77047FEE70000F0B500230A24302522
:101D300037261F4611E000BFB4EB107F02D905EB38
:101D4000107C01E006EB107C01F813C001EB430CA2
:101D500000015B1C8CF80170DBB29342ECD3F0BD48
:101D6000094808B5016841F480010160006800225B
:101D700000F48000009011463A20FEF781FEBDE895
:101D800008403A20FEF76EBE3038024030B587B0CA
:101D900014216846FEF770FA1548016841F0800189
:101DA0000160016801F080010591016841F00201C4
:101DB0000160016801F002010591016841F0010133
:101DC00001600068012200F001000A4D94020590B4
:101DD00021462846FEF7E0FD01210220CDE9021050
:101DE000CDE9004169462846FEF7F0FC07B030BD5A
:101DF00030380240001C02400C4810B50A4901600E
:101E00004FF4E1314160002181600C22C160C0E9E2
:101E100004128161C161FFF74BFE002803D0BDE8C9
:101E20001040FEF7F0BA10BD0010014090050020F0
:101E300010B501220F49104800F076FE08B1FEF7F8
:101E4000E2FA0E490C4801F06BF808B1FEF7DBFA34
:101E50000B49094800F062FC08B1FEF7D4FA0648C5
:101E600001F0D0F8002803D0BDE81040FEF7CBBA4F
:101E700010BD00000800002030060020B000002047
:101E80008C000020FEE770470148FEF76FBF00009E
:101E9000CC0800202DE9F041044600680E46016C94
:101EA00000EB4615D5F8080B276920234FF40042B4
:101EB000012F08D02C4FB9424FD1010449D500BFA2
:101EC000C5F8082B4DE0DFF8A4C05FEA007E04F5FA
:101ED000717711D5614503D9000401D5C5F8082BE8
:101EE0002046FFF75DFA3A460121206801F042FCE6
:101EF0000820C5F8080B34E05FEA806E02D5C5F80B
:101F0000083B2EE010F0280F2BD1614501D90004C9
:101F1000D6D4C6EBC60004EB8000D5F8102BD0F861
:101F20000412C2F312028A1AC0F81422D0F808224E
:101F30001144C0F80812F1B22046FEF707FE86B938
:101F4000D4F8100268B93A460121206801F012FC69
:101F500007E0800601D5C5F8083BF1B22046FEF740
:101F6000F5FD0020BDE8F0810A31544F0A30544F8E
:101F70002DE9F84F0E46C1EBC60100EB8104814606
:101F80000568D4E914103C34884202D90120BDE828
:101F9000F88F081AA168814200D20846C01C870841
:101FA00005EB46181BE000BFA0EB010AA0685045F6
:101FB00000D282460AF10300870899F810000090C9
:101FC0001FFA8AF3F2B22846E16801F04BFEE1689D
:101FD00001EB0A00E060A16901EB0A00A061D8F8FA
:101FE000180980B2B84205D3D4E90501814201D273
:101FF0000028D9D1D4E90501884208D806F00F019C
:1020000001208840D5F834188143C5F834180020E1
:10201000BDE770477047FEF7CBBC000030B593B00A
:1020200030216846FEF728F914210CA8FEF724F9A0
:1020300019480025016841F080510160006800F0F6
:10204000805011901548016821F4404141F48041CD
:1020500001600068022400F44040119001200090CB
:10206000000401908001CDE90640192008909020DD
:10207000CDE9090403200B906846FFF7C1FA0CA9CB
:102080000F2081E83100E0020F90109002210CA88F
:10209000FFF7C6F913B030BD403802400070004071
:1020A0001048016841F4700101600F48016841F077
:1020B000010101600C4A00210832116002680B4BDB
:1020C0001A400260031D0A4A1A60026822F4802244
:1020D000026005480C3001600249580680390860EA
:1020E0007047000088ED00E000380240FFFFF6FE78
:1020F0001030002410B5806B0021C185C184FFF72A
:102100004DFC10BD70B5846B2068406994F839109F
:10211000C0F3C0100025212904D118B1E584204660
:1021200000F046F82068406994F83A10C0F3801037
:10213000222904D118B1E585204600F02BF8E06B88
:1021400040F01000E0632046FFF728FC70BD10B59A
:102150000146806B09680968C90513D40021C1854F
:102160000168CA6822F48072CA6001684A6922F074
:1021700001024A6101684A6922F040024A61202155
:1021800080F83A10FFF76EFD10BD10B5806BFFF7B9
:102190006AFD10BD0168CA6822F49072CA600168C5
:1021A0004A6922F001024A61202180F83A10704702
:1021B0000168CA6822F0C002CA60202180F8391084
:1021C000704710B590F83A10222901D0022010BDB6
:1021D0008168B1F5805F11D00169002901681FD0C5
:1021E000496801F07F03816A4A1C82620B70C18DCD
:1021F000491E0904090CC18518D02BE00269816AC7
:10220000002A0268526805D0D2B20A80816A491C4D
:102210008162ECE7C2F308020A80816A891CF7E751
:102220004A68816A4B1C83620A70E0E70168CA68E9
:1022300022F02002CA600168CA6822F48072CA6073
:1022400001684A6922F001024A61202180F83A10AF
:10225000FFF708FD002010BD2DE9F041044600689D
:102260000169E26821F44051114301612169A068CC
:10227000E26908436169114322680843D16849F261
:102280000C6399430143D16020684169A26921F43C
:10229000407111434161E2696425B2F5004F9748EE
:1022A000974922684FF032083FD08A4201D08242DB
:1022B0007CD1FFF763F900EBC00101EB001061680E
:1022C0008900B0FBF1F6FFF759F900EBC00101EB13
:1022D000001061688900B0FBF1F0B0FBF5F06FF021
:1022E0001801484306EB800108EB0110B0FBF5F044
:1022F00000F0F006FFF742F900EBC00101EB00101F
:1023000061688900B0FBF1F0B0FBF5F006EB001658
:10231000FFF734F900EBC00101EB001061688900A0
:10232000B0FBF1F7FFF72AF9D2E08A4201D08242EE
:102330003DD1FFF723F900EBC00101EB001061680C
:102340004900B0FBF1F0B0FBF5F00601FFF716F91C
:1023500000EBC00101EB001061684900B0FBF1F730
:10236000FFF70CF900EBC00101EB001061684900B8
:10237000B0FBF1F0B0FBF5F06FF01801484307EB4C
:10238000800108EBC100B0FBF5F000F0F80006EBAF
:102390004006FFF7F3F800EBC00101EB00106168A5
:1023A0004900B0FBF1F7FFF7E9F83CE055E0FFF733
:1023B000D5F800EBC00101EB001061684900B0FBEB
:1023C000F1F0B0FBF5F00601FFF7C8F800EBC00133
:1023D00001EB001061684900B0FBF1F7FFF7BEF8B0
:1023E00000EBC00101EB001061684900B0FBF1F0A7
:1023F000B0FBF5F06FF01801484307EB800108EBE4
:10240000C100B0FBF5F000F0F80006EB4006FFF766
:10241000A5F800EBC00101EB001061684900B0FBBA
:10242000F1F7FFF79BF800EBC00101EB00106168CA
:102430004900B0FBF1F0B0FBF5F06FF01801484334
:1024400007EB800108EBC100B0FBF5F000F00700DE
:10245000216830448860BDE8F081FFF77FF800EB29
:10246000C00101EB001061688900B0FBF1F6FFF7D5
:1024700075F800EBC00101EB001061688900B0FB4A
:10248000F1F0B0FBF5F06FF01801484306EB800166
:1024900008EB0110B0FBF5F000F0F006FFF75EF876
:1024A00000EBC00101EB001061688900B0FBF1F0A6
:1024B000B0FBF5F006EB0016FFF750F800EBC0019B
:1024C00001EB001061688900B0FBF1F7FFF746F8F7
:1024D00000EBC00101EB001061688900B0FBF1F076
:1024E000B0FBF5F06FF01801484307EB800108EBF3
:1024F0000110B0FBF5F000F00F00A9E70014014057
:102500000010014090F83910212901D002207047B5
:102510008168B1F5805F016A0BD04A1C02620268D3
:1025200009785160C18C491E0904090CC1840ED080
:1025300017E009880268C1F30801516001690029A8
:10254000016A02D0491C0162ECE7891CFBE70168C3
:10255000CA6822F08002CA600068C16841F0400188
:10256000C160002070472DE9F041984617460E469D
:102570000446069D1DE0681C1BD02DB1FEF712FA23
:10258000A0EB0800A84214D92068C16821F4D071DA
:10259000C1602068416921F001014161202084F877
:1025A000390084F83A00002084F838000320BDE8A0
:1025B000F0812068006836EA000004D00020B842AC
:1025C000D9D00020F3E70120F9E700000C4808B556
:1025D00000680168C943C9060DD4016840680090CD
:1025E0000748FFF7AFF90749012082020870064942
:1025F0000348FFF7EBFABDE808400148FFF7D0B900
:10260000900500200400002090010020D0F89002E6
:10261000002180F850100846704770B50546D0F884
:102620009042D5F894226178D26820789047402370
:1026300022460121284600F0BFFB002070BD70B586
:102640000446812100F0A9FA002501212046E56217
:1026500000F0A3FAC4F85851D4F8900248B1D4F865
:10266000940204F5247480688047206801F0B4FB6C
:102670002560002070BD10B5D0F89042E16C0129B2
:1026800008D1D0F8940223786178C2681846904740
:102690000020E064002010BD0A210180004870473E
:1026A000780100202921018000487047E8000020BF
:1026B0002921018000487047140100202921018050
:1026C000004870474001002070B5044600264023B2
:1026D0000322812100F064FB0125402303222946C7
:1026E0002046E56200F05CFB5420C4F8585101F02C
:1026F000E3FBC4F8900278B10546002085F850004D
:10270000D4F894024068804740232A46012120469D
:1027100000F052FB304670BD0126FBE70246022066
:10272000002902D00020C2F89412704710B5134659
:1027300090F87442D0F89022032C0BD192F85040BC
:102740000CB1012010BD012482F850400A468121BD
:1027500000F0C9FB002010BDF8B50022D0F890327F
:10276000ADF800200E781546144616F0600622D00B
:10277000202E56D14A78921E0A2A52D2DFE802F061
:1027800010085151515151140C05887818644BE0D0
:10279000012203F1400135E04888000A586443E013
:1027A000012203F144012DE00122DA64CA881946AE
:1027B00000F064F838E04E7836B1062E0BD00A2EC1
:1027C00023D00B2E2DD128E090F87422032A28D193
:1027D0000222694616E04B882226B6EB132F07D15A
:1027E000CA88342A00D93422D0F894120D6808E03F
:1027F0002126B6EB132F04D1CA880E4D092A00D921
:102800000922294600F054F80EE090F87422032AB9
:1028100007D1012203F14801F4E790F87422032A5A
:1028200004D000F020F802242046F8BD887898648F
:10283000FAE700006C01002010B5D0F88C22526835
:102840009047002010BD134610B50A46002100F045
:10285000B3FA002010BD134610B50A46002100F05F
:1028600042FB002010BD10B50446802100F020FB83
:102870002046BDE81040002100F01ABB10B503232C
:10288000C0F84821C0F86C32C0F84C2113460A4603
:10289000002100F091FA002010BD10B505210023A1
:1028A000C0F86C121A46194600F086FA002010BDD6
:1028B00010B50223C261C0F86C32026213460A46A8
:1028C000002100F010FB002010BD10B504210023F2
:1028D000C0F86C121A46194600F005FB002010BD26
:1028E000F8B5044648880D46010A08294BD2DFE8AE
:1028F00001F04A0409174A4A4048D4F88812207C5B
:102900000A6832E0207C02260028D4F88C0205D028
:10291000C16A684688470146467041E0816AF8E727
:10292000C0B206282FD2DFE800F003080D12171CF2
:10293000D4F88812207C4A6817E0D4F88812207CEA
:102940008A6812E0D4F88812207CCA680DE0D4F8B6
:102950008812207C0A6908E0D4F88812207C4A6931
:1029600003E0D4F88812207C8A69694690470146C2
:1029700016E0207C38B9D4F88C02416B6846884751
:10298000F5E7207C20B129462046FFF76CFFF8BD13
:10299000D4F88C02016B68468847014607204870CE
:1029A000BDF8000048B1EA8852B1824200D902461F
:1029B000ADF800202046FFF77BFFE8880028E6D12D
:1029C0002046FFF782FFF8BD70B5002300281ED017
:1029D0000446002502E06D1CEDB2641C2678002E32
:1029E000F9D1022404EB450414801278CA545B1C0C
:1029F0000322CA5400245B1C06E0CA545B1CDAB2F2
:102A00008C54521CD3B2401C0278002AF5D170BD00
:102A100001004FF0000004D0012901D0022901D0AB
:102A2000022070470120704710B50A46024903A0F2
:102A3000FFF7CAFF004810BDD40C00204375737423
:102A40006F6D2048494420436F6E6669670000003F
:102A500012200880004870472800002010B50A4660
:102A6000024903A0FFF7B0FF004810BDD40C0020BE
:102A7000437573746F6D2048494420496E746572C4
:102A8000666163650000000004200880004870470C
:102A90002400002010B50A46024903A0FFF794FF66
:102AA000004810BDD40C002053544D6963726F650B
:102AB0006C656374726F6E696373000010B50A46CB
:102AC000024903A0FFF780FF004810BDD40C00208E
:102AD00053544D333220437573746F6D2048756DB8
:102AE000616E20696E746572666163650000000046
:102AF00010B51A2008800A480168001D0468001DEE
:102B00000068081809D008220649FFF70DF90549A1
:102B1000042210312046FFF707F90248801E10BD3D
:102B2000107AFF1F3E00002010B580B1D0F88C3223
:102B300013B10023C0F88C3209B1C0F8881201210A
:102B400080F87412027000F0E3F8002010BD05A0B8
:102B500001F09CF805A001F099F80AA001F096F8A0
:102B6000022010BD4552524F523A2000496E766104
:102B70006C6964204465766963652068616E646C85
:102B8000650000000A00000010B5D0F89802FEF7BA
:102B900011F8BDE81040FFF73BBF10B5D0F8980220
:102BA000FDF7E2FFBDE81040FFF732BF2DE9F0412D
:102BB0001746044651B1D4F88C0242691AB194F810
:102BC0007402032851D00220BDE8F081D4F86C32A1
:102BD000002504F11400022B03D0042B3AD0C3B318
:102BE0003CE0D0E903639E4207D9F11AC1608AB282
:102BF00039462046FFF72FFE12E08068B0FBF3F164
:102C000003FB110199B9984211D3D4F8701288428C
:102C10000DD2002211462046FFF71DFEC4F8705267
:102C200000231A461946204600F0C6F816E0D4F8EC
:102C30008C02C16829B194F87402032801D120469E
:102C400088478021204600F033F92046FFF725FE13
:102C500004E0FFE78021204600F02AF994F878028A
:102C6000012804D184F8785201E0204690470020E2
:102C7000AAE770B51546044649B1D4F88C028269BA
:102C80001AB194F87402032830D0022070BDD4F831
:102C90006C1204F5A070032902D005291ED027E08C
:102CA000D0E903218A420BD9531AC36008468342F4
:102CB00000D303469AB229462046FFF7C4FD17E029
:102CC000D4F88C02016929B194F87402032801D167
:102CD000204688472046FFF7F8FD09E0002001461E
:102CE000C4F86C02204600F0E3F801E0204690476B
:102CF000002070BD0020704710B5012180F87412CB
:102D0000D0F88C22017952689047002010BD000055
:102D100010B50178012929D115490222C1F804040E
:102D2000C0F8981213480860062048600020C1E9E6
:102D30000320C1E9062008624862C862086348634C
:102D40000846FEF751FA08B1FDF75DFB4FF400713C
:102D50000748FDF7C8FE802200210548FDF7C7FEA1
:102D60004FF4BA7201210248FDF7C1FE002010BDE8
:102D7000CC080020000004400A0601F07F01D0F8D2
:102D80009802C1EBC10100EB810002D590F83E0032
:102D9000704790F8FE017047002070470020704790
:102DA00010B51C461346D0F898022246FDF730FFB6
:102DB000BDE81040FFF72CBE10B5D0F89802FDF723
:102DC00057FFBDE81040FFF723BE70B50022044650
:102DD00040231146FFF7E4FF40260125C4F8506167
:102DE0003346002280212046C4F84451FFF7D8FF23
:102DF0006662A56184F874520020C4F86C026060B9
:102E0000C4F87C02D4F8900228B1D4F88C020021D6
:102E1000426820469047002070BD90F8751280F8F7
:102E200074120020704710B590F87412032904D171
:102E3000D0F88C12C96901B18847002010BD017417
:102E40000020704710B5D0F89802FEF795FABDE85B
:102E50001040FFF7DDBD70B5044600F52070054653
:102E600000F04AF80120C4F86C02B4F88602C4F8F5
:102E7000700294F8800210F01F010AD001290DD0D1
:102E8000022910D000F08001204600F011F8002047
:102E900070BD2946204600F0BAF8F8E729462046DA
:102EA00000F0E6F9F3E72946204600F039F9EEE7AD
:102EB00010B5D0F89802FDF7FFFEBDE81040FFF70F
:102EC000A7BD10B5D0F89802FEF771FABDE8104022
:102ED000FFF79EBD90F8741280F87512042180F8F7
:102EE00074120020704710B5D0F89802FDF71EFF4D
:102EF000BDE81040FFF78CBD0A7802704A78427036
:102F00008A78CB7802EB032242800A794B7902EB74
:102F1000032282808A79C97902EB0121C18070473E
:102F200010B50246002011B1C2F88C1210BD05A0E8
:102F300000F0ACFE05A000F0A9FE0AA000F0A6FE7D
:102F4000022010BD4552524F523A2000496E766120
:102F50006C696420436C6173732068616E646C6596
:102F6000000000000A00000010B5D0F88C220224F6
:102F70001AB11268904700B90024204610BD000025
:102F800070B50E461E4D897804462970012931D846
:102F900094F8740202280BD003280FD03146204643
:102FA000FFF761FC29782046BDE87040FFF744BC7C
:102FB000D9B10320616084F8740209E071B16068DE
:102FC000884212D0C1B22046FFF736FC29786160F2
:102FD0002046FFF7C9FF02280CD006E0022084F843
:102FE000740220466160FFF727FC2046BDE8704070
:102FF000FFF76BBC31462046BDE87040FFF733BC9D
:10300000AC00002010B5FFF75CFF002010BD2DE9DB
:10301000F0410A78002612F0600208D0202A01D080
:10302000402A70D1D0F88C22926890476DE04B789E
:10303000002201250A2B66D2DFE803F0405D6557C8
:10304000650805652C29FFF74BFC5EE0044688887F
:10305000D8B9C888C8B94888802816D200F07F0738
:1030600094F87402032810D084F87672394620460A
:10307000FFF7E8FE2046FFF728FC1FB1022084F886
:10308000740242E084F874523FE020463BE0FFF7D0
:1030900077FF3AE0CB88012B35D190F87432012BC1
:1030A00004D0022B02D0032B2DD104E08260012238
:1030B00000F1080116E00122011D13E090F87422CE
:1030C000012A03D0022A01D0032A1CD1CA88022A6D
:1030D00019D1C560D0F87C1209B10321C160022268
:1030E00000F10C01FFF7E4FB0FE0498801290CD146
:1030F000C0F87C5211E090F87432012B08D0022BFA
:1031000006D0032B04D0FFF7AEFB3046BDE8F081BC
:1031100049880129F9D1C0F87C22FFF7D6FBF4E7F2
:103120002DE9F0410A46044610780027097910F08D
:1031300060030AD0202B01D0402B50D1D4F88C0250
:1031400011468368204698478FE0C0F3411001285C
:1031500006D05078D0B301282AD003283FD107E009
:10316000D4F88C02114683682046BDE8F041184728
:1031700094F87402022802D0032872D10AE071B3D5
:1031800080296ED02046FFF793FE80212046FFF76E
:103190008FFE6AE0508838B931B1802904D0D088D8
:1031A00010B92046FFF784FE2046FFF78EFB5CE057
:1031B00094F874020228E2D0032852D1508898BBB8
:1031C0004806F1D02046FFF7DFFCEDE7FFE794F873
:1031D00074020026022803D0032842D112E040E006
:1031E00009B180293DD1080601F07F0000EB800085
:1031F00004EB800101D5143101E001F5A071022238
:103200000E602AE0080601F00F0000EB800004EBDE
:1032100080000AD5806920B301F07F0000EB8000B8
:1032200004EB800514350BE01FE0D0F84401C0B179
:1032300001F07F0000EB800004EB800505F5A07530
:1032400041B1802906D02046FFF796FD10B101203C
:10325000286000E02E60022229462046FFF728FB66
:1032600003E011462046FFF7FEFA3846BDE8F0813C
:1032700070B5054608780C4610F0600003D0202891
:1032800001D0402816D195F87402012803D00228F5
:1032900001D003280ED1207901280BD8D5F88C0253
:1032A000826828469047E188014306D12846FFF707
:1032B0000CFB02E02846FFF7D6FA002070BD0000A4
:1032C00070B50A78012302F00F054E78AB401B4C15
:1032D000D0F81C58012E17D045EA0343C0F81C381B
:1032E00000EB4210D0F8002B12040BD4D0F8002BC6
:1032F0000B89C978C3F30A031A4344EA81410A439C
:10330000C0F8002B002070BD9BB21D43C0F81C58B4
:1033100000EB4210D0F800391B04F3D4D0F8003988
:103320000D89C978C5F30A0589042B4341EA825106
:103330000B432343C0F80039E4E70000008000108D
:10334000D0F800196FF30A01C0F80019D0F8081876
:10335000C1F34101022905D1D0F8001941F0030160
:10336000C0F80019D0F8041841F48071C0F80418AE
:103370000020704770B5044606990A9E049D0D987A
:10338000012916D0E06840F04000E060204600F0DF
:103390002BF8A16B1EB321F48031A163012D07D15D
:1033A000A16841F00601A160A16841F02001A1607F
:1033B00070BDA16B21F48031A163E168094A11401D
:1033C000E160E16821F44011E160012803D1E06887
:1033D00040F48010E060204600F006F8DEE741F49B
:1033E0008031DAE7BFFFBDFF01220C4902E0521C29
:1033F0008A420BD80369002BF9DA026942F0010214
:103400000261012204E0521C8A4201D90320704764
:103410000369DB07F7D1002070470000400D03006F
:1034200030B50B784D78012203F00F0402FA04F452
:10343000012DD0F83C5817D025EA0444C0F83C4888
:10344000D0F81C48097801F00F018A4024EA0241B3
:10345000C0F81C1800EB4310D0F8001B0E4A1140B6
:10346000C0F8001B002030BDA4B2A543C0F83C58F2
:10347000D0F81C48097801F00F018A4091B28C43C2
:10348000C0F81C4800EB4310D0F80019034A114063
:10349000C0F80019E6E700000078F3EF007833EC9D
:1034A00010B5D0F8041821F00201C0F80418032068
:1034B000FDF77AF9002010BD10B5D0F8041841F0DE
:1034C0000201C0F804180320FDF76EF9002010BDBA
:1034D0002DE9F04F0025DDE90BCB0E460446DDF863
:1034E0004090099F2846294604EB8002C2F8041147
:1034F000401C0F28F8D3B9F1000F204618D00068FF
:1035000020F400122260A06B40F40022A26308465F
:103510008846C4F8000ED4F800182046C4F80018F5
:10352000BCF1010F10D0D0F8001841F0030110E0F9
:10353000806B40F40012A263A06B20F40022A2630F
:10354000A06B20F48022E1E7D0F800180BB141F025
:103550000101C0F80018102100F08AFA00B101251D
:10356000204600F075FA00B101254046C4F81088E5
:10357000C4F81488C4F81C8800214FF000634FF091
:1035800090484FF67F3A14E004EB4112D2F800C99C
:10359000BCF1000F06DA11B1C2F8008904E0C4F8EA
:1035A000003901E0C2F80009C2F81009C2F808A900
:1035B000491C8E42E8D8002115E000BF04EB4112FF
:1035C000D2F800CBBCF1000F06DA11B1C2F8008BC3
:1035D00004E0C4F8003B01E0C2F8000BC2F8100B95
:1035E000C2F808AB491C8E42E8D8D4F8101821F470
:1035F00080722146C4F81028012F08D1134AC1F85F
:103600003028D1F83018124A1143C4F83018A0619C
:103610006FF0804060611FB9A06940F01000A061A8
:10362000A0690C490843A061BBF1000F03D0A06959
:1036300040F00800A061B9F1010F03D1A06906496B
:103640000843A0612846BDE8F08F0000000180001B
:103650000300010000383C8004000040816821F034
:10366000010181600020704770B50D784E78404CA4
:10367000EBB200EB4313012E1FD0D3F8100B6FF306
:103680001200C3F8100BD3F8100B2040C3F8100B36
:10369000486908B188684861D3F8100B40F40020ED
:1036A000C3F8100BD3F8100B8C68C4F3120420433A
:1036B000C3F8100B012A4ED051E04E69002ED3F80A
:1036C000106932D06FF31206C3F81069D3F810698D
:1036D0002640C3F810694E698C68A64200D94C6137
:1036E000D3F8104944F40024C3F81049D3F8104922
:1036F0004E69C6F312063443C3F81049012A22D09A
:103700004A694AB1D0F83428097801F00F03012141
:1037100099400A43C0F8342800EB4510D0F800194E
:1037200041F00441C0F800191FE02640C3F81069B9
:10373000D3F8104944F40024C3F81049D3F81049D1
:103740006FF31204D8E709690029E5D000EB4512B0
:10375000C2F81419E0E7C86808B1C3F8140BD3F82D
:10376000000B40F00440C3F8000B002070BD0000C7
:10377000FFFF07E010B5036C134CA34203D9D0F848
:10378000003B002B1EDB0023C0F8103BD0F8103BA1
:1037900043F40023C0F8103BD0F8103B43F018036B
:1037A000C0F8103BD0F8103B43F0C043C0F8103BCA
:1037B000012907D1C0F8142BD0F8001B41F080215B
:1037C000C0F8001B002010BD0A30544F4A780B7817
:1037D000012A00EB43100BD0D0F8002B22F400128A
:1037E000C0F8002BC978032914D0022912D017E0A1
:1037F000D0F8002922F40012C0F80029C978032962
:1038000001D002290CD1D0F8001941F08051C0F844
:10381000001905E0D0F8001B41F08051C0F8001BF2
:10382000002070470A784B78D1B200EB4110012B91
:1038300012D0D0F8001B002906DB2AB1D0F8001BFB
:1038400021F08041C0F8001BD0F8001B41F40011AA
:10385000C0F8001B00207047D0F80019002906DBD3
:103860002AB1D0F8001921F08041C0F80019D0F831
:10387000001941F40011C0F80019EBE7F8B50C7815
:103880004F786F4DE3B26FF0604600EB4313012FAA
:1038900026D0D3F8104B6FF31204C3F8104BD3F8B3
:1038A000104B2C40C3F8104B4C69002C6FD08D6826
:1038B0002C44641EB4FBF5F4D3F8105BA4B206EA02
:1038C000C4463543C3F8105BD3F8105B8E6866437B
:1038D000C6F312042543C3F8105B012A7ED096E09C
:1038E0004F691FB3D3F810796FF31207C3F810793B
:1038F000D3F810792F40C3F810794F698D682F44A1
:103900007F1EB7FBF5F506EAC545D3F810693543C8
:10391000C3F81059D3F810594E69C6F3120635434F
:10392000C3F81059CD78012D10D01BE0D3F81069E1
:103930002E40C3F81069D3F8105945F40025C3F898
:103940001059D3F810596FF3120509E0D3F8105944
:1039500025F0C045C3F81059D3F8105945F000556B
:10396000C3F81059012A13D0CB78012B18D04B691A
:103970002BB3D0F834380D7805F00F060125B5408B
:103980002B43C0F83438CB78012B09D017E02BE05B
:103990000B69002BF7D000EB4415C5F81439F2E79A
:1039A000D0F80838DB0500EB4413D3F8005902D4F3
:1039B00045F0005501E045F08055C3F8005900EB93
:1039C0004413D3F8004944F00444C3F80049CB78C9
:1039D000012B32D100928A8A93B200E013E00A7878
:1039E000C96800F03FF928E0D3F8104B8D68C5F3A3
:1039F00012052C43C3F8104BD3F8104B44F40024A9
:103A0000C3F8104B69E7CA680AB1C3F8142BC97828
:103A100001290CD1D0F80808C005D3F8000B02D456
:103A200040F0005001E040F08050C3F8000BD3F8A4
:103A3000000B40F00440C3F8000B0020F8BD00006C
:103A4000FFFF07E0816841F00101816000207047BD
:103A5000002110220261054A491C914201D903202C
:103A600070470369DB06F7D400207047400D030060
:103A70000022202343EA811101610549521C8A4238
:103A800001D90320704703699B06F7D400207047D3
:103A9000400D0300D0F8080810F0060004D00228FA
:103AA00003D0062801D000207047032070474069EA
:103AB00000F001007047D0F81818D0F81C08084032
:103AC00080B27047D0F81818D0F81C080840000CD5
:103AD000704710B5D0F81038D0F8342801F00F0432
:103AE00000EB4110E24002F00102D0F8080943EA7D
:103AF000C212104010BD00EB4111D1F8081BD0F8E4
:103B00001408084070474169806908407047D21C1A
:103B100010B59308002200F5805002E00468521CA2
:103B200010C19A42FAD3084610BD10B5C26822F0FF
:103B3000C042C260012902D029B1012010BDC16874
:103B400041F0005102E0C16841F08041C160322083
:103B5000FCF72AFE002010BDD0F8002822F4FE62F7
:103B6000C0F80028D0F800284FF4FE6303EA0111E2
:103B70000A43C0F80028002070470000032A3ED105
:103B8000264A274B0A449A4201D20F2138E0254A9F
:103B9000254B0A449A4201D20E2131E0234A244B9C
:103BA0000A449A4201D20D212AE0224A224B0A44B9
:103BB0009A4201D20C2123E0204A214B0A449A4226
:103BC00001D20B211CE01F4A1F4B0A449A4201D22A
:103BD0000A2115E01D4A1E4B0A449A420FD31D4A82
:103BE0001D4B0A449A4201D2082109E01B4A1144A4
:103BF0001B4A914201D2072102E0062100E009217F
:103C0000C26822F47052C260C2684FF4705303EA73
:103C100081210A43C260002070470000405327FF03
:103C200000350C00401E1BFF40420F0000DC0BFF64
:103C3000804F1200808CF9FE20D6130060B6E5FE9E
:103C400060E3160000D3CEFE40771B00C05BB3FEDE
:103C5000C091210000CA91FE20753800E05459FE41
:103C6000E09C410010B5029C64B9DB1C9C0800EB91
:103C70000230002300F5805002E004C902605B1CA2
:103C8000A342FAD3002010BDFEE700000FB4054B9D
:103C900010B503A9044A029800F027F810BC5DF89B
:103CA00014FB0000C13D0008840100200907090E33
:103CB000002804DB00F1E02080F80014704700F0D9
:103CC0000F0000F1E02080F8141D704702E008C8E2
:103CD000121F08C1002AFAD170477047002001E086
:103CE00001C1121F002AFBD170472DE9F84F9946F8
:103CF000924688460546002706E025280AD0514608
:103D00004A4690476D1C7F1C28780028F5D138461C
:103D1000BDE8F88F002315F8011F18462E2915D18C
:103D200015F8011F04232A290DD06FF02F022978DE
:103D3000A1F13004092C09D800EB800002EB40000F
:103D400008446D1CF3E758F8040B6D1C2A78002A10
:103D5000DDD0632A07D0732A0FD0104651464A4659
:103D600090477F1C2AE018F8042B8DF800200021D2
:103D70008DF801106E46012103E058F8046B4FF0F6
:103D8000FF315A074FF0000401D409E0641C84425B
:103D90000BDA8C42FADB325D002AF7D105E0641CB5
:103DA0008C42FCDB305D0028F9D1274404E016F892
:103DB000010B51464A469047641EF8D26D1CA3E79A
:103DC00013B54FF6FF73012269460248FDF74CFF19
:103DD0001CBD00009005002010B5002821D0114B1B
:103DE0000022001F196803E0814203D80A4649688F
:103DF0000029F9D152B11368841A9C4204D1006899
:103E000018441060104602E0506000E0186039B1BC
:103E100002680B1A934203D10B681A440260496886
:103E2000416010BD88010020FCF7CAFDFEF7F6F8DE
:103E3000FDF7ACFFFDF794FFFDF7DEFFFDF7F8FFA0
:103E400014480068C16841F01001C1604FF48062FD
:103E500011491048FDF7BAFE10A0FFF717FF124EE8
:103E60000024124D40F6B8386427307820B1347001
:103E700009490FA0FFF70AFF4046FCF795FC2C709C
:103E80006F70AC70EC70042208490A48FEF74EFCD3
:103E9000EBE70000900500209001002068656C6C45
:103EA0006F2070700A000000040000200000002055
:103EB00025730A0030060020F0B50B30154D20F0B8
:103EC00007010024144A0FE003688B420BD38B4296
:103ED00005D95E1A43184768C3E9006700E04368E4
:103EE000136002C004E0021D10680028ECD12046D7
:103EF000002802D1286808B10020F0BD064A074812
:103F00001060074A121A22F00702C0E900240120BB
:103F10002860D7E78C01002088010020DC0E0020FB
:103F2000D810002000061016000610160000000031
:103F30000000000001020304060708090000000059
:103F400001020304643F000800000020900100000B
:103F5000F0020008384000089001002048130000DB
:103F6000DC3C00088113512A1B0889041A95041AA5
:103F7000BD041AF1041A29041A5D04170403090484
:103F80001201320216408304505726020102030137
:103F9000031A1A03100A05010902A1010901A1105F
:103FA0000C9503750105091901290315180B250145
:103FB0008102950175058103161A0824200F300926
:103FC0003109381581257F8106C0C05814204D0362
:103FD0001B0849041A510419631182105324F41365
:103FE000C9261B083F0413592742081A770C1A0DDB
:103FF000041A1B04C11AB1101AA5041ABD041A9997
:10400000041409022913010125C03209042A02B946
:104010001509211101140122341A078F12402D05B0
:1040200007050107291A09562C691A31130A0632A5
:08403000022A40E4C100000077
:04000005080001AD41
:00000001FF
