:020000040800F2
:10000000B8080020C10100086B140008A5130008FF
:1000100069140008CD020008691A000800000000F9
:100020000000000000000000000000006F14000845
:1000300081030008000000006D140008711400081E
:10004000DB010008DB010008DB010008DB01000820
:10005000DB010008DB010008DB010008DB01000810
:10006000DB010008DB010008DB010008DB01000800
:10007000DB010008DB010008DB010008DB010008F0
:10008000DB010008DB010008DB010008DB010008E0
:10009000DB010008DB010008DB010008DB010008D0
:1000A000DB010008DB010008DB010008DB010008C0
:1000B000DB010008DB010008DB010008DB010008B0
:1000C000DB010008DB010008DB010008DB010008A0
:1000D000DB010008291A0008DB010008DB01000829
:1000E000DB010008DB010008DB010008DB01000880
:1000F000DB010008DB010008DB010008DB01000870
:10010000DB010008DB010008DB010008DB0100085F
:10011000DB010008DB010008DB010008DB0100084F
:10012000DB010008DB010008D1020008DB01000848
:10013000DB010008DB010008DB010008DB0100082F
:10014000DB010008DB010008DB010008DB0100081F
:10015000DB010008DB010008DB010008DB0100080F
:10016000DB010008DB010008DB010008DB010008FF
:10017000DB010008DB010008DB01000800000000D3
:10018000DB010008DB010008DB010008DB010008DF
:10019000DB010008DB010008DB010008DB010008CF
:1001A000DB010008DB010008DB010008DFF80CD0F0
:1001B00000F07AF800480047B91B0008B808002092
:1001C0000648804706480047FEE7FEE7FEE7FEE7F1
:1001D000FEE7FEE7FEE7FEE7FEE7FEE7FD140008A8
:1001E000AD0100082DE9F05F0546002092469B46D0
:1001F00088460646814640241BE02846414647463D
:10020000224600F041F853465A46C01A914110D395
:1002100011461846224600F028F82D1A67EB01080F
:100220004F4622460120002100F01FF817EB00097D
:100230004E41201EA4F10104DFDC484631462A4627
:100240004346BDE8F09FD2B201E000F8012B491E01
:10025000FBD270470022F6E710B513460A46044663
:100260001946FFF7F0FF204610BD202A04DB203A94
:1002700000FA02F1002070479140C2F1200320FAF9
:1002800003F3194390407047202A04DB203A21FAF7
:1002900002F00021704721FA02F3D040C2F120029F
:1002A0009140084319467047064C074D06E0E06848
:1002B00040F0010394E8070098471034AC42F6D3AD
:1002C000FFF778FF3C1C00085C1C0008FEE70000FC
:1002D000014800F0B1B8000058040020016818235C
:1002E000CAB2103AB2FBF3F2054B6FF30901032ACD
:1002F0009B5CC36500D9091D8165084670470000F5
:100300001C1C000810B5014600208B698A6A4FF05A
:10031000C07453B1B3F5005F15D072B1012A0CD08F
:10032000022A0AD0032A09D104E01AB1012A06D010
:10033000022A03D1C96AC90100D5012010BDC96ACA
:10034000A142FAD010BD002AF7D0012AF2D0022A29
:10035000F3D0032AF3D010BD30B50468256825F426
:1003600080252560046863608368402B036803D0A0
:1003700099600068C26030BD9A600068C16030BD9D
:10038000704770472DE9F0410446876D00F0B6FADA
:10039000064694F835000025022806D080206065C6
:1003A00084F834500120BDE8F0812068016821F014
:1003B000160101602068416921F080014161206CD3
:1003C00008B9A06C20B12068016821F00801016023
:1003D0002068016821F0010101600BE000F08EFA55
:1003E000801B052806D92020606504F8345F0320AF
:1003F0006070D8E720680068C007EFD194F85C10FF
:100400003F208840B86004F8345F0120607000200D
:10041000C9E790F83510022903D0802141650120F9
:100420007047052180F835100068016821F001014E
:1004300001600020704700002DE9F84304464FF0AA
:100440000009CDF8009063484FF41651A56D00687F
:10045000B0FBF1F72E6894F85C10082000FA01F167
:1004600031420FD021680A6852070BD50A6822F082
:1004700004020A6094F85C108840A860606D40F047
:100480000100606594F85C104FF0010808FA01F073
:10049000304208D021684969090604D5A860606D1A
:1004A00040F00200606594F85C10042088403042FF
:1004B00008D021680968890704D5A860606D40F0FC
:1004C0000400606594F85C1010208840304218D019
:1004D00021680968090714D5A860206801684903E4
:1004E00004D50068000308D5A16C07E00168C905C0
:1004F00003D4016821F008010160216C09B1204694
:10050000884794F85C1020208840304231D0216820
:100510000968C9062DD5A86094F83500052820681B
:10052000016806D0490347D5006800031DD4616CFB
:100530001CE021F0160101602068416921F0800172
:100540004161206C08B9A06C20B12068016821F0DD
:100550000801016094F85C103F208840A86084F88E
:10056000349084F83580216D1FE0E16B09B120469D
:100570008847606D00282BD0606DC00714D005201F
:1005800084F835002068016821F0010101600098BD
:10059000401C0090B84203D820680068C007F6D11C
:1005A00084F8349084F83580E16C002910D001B0D3
:1005B0002046BDE8F04308470168C905D5D4016865
:1005C00021F01001016084F8349084F83580CCE784
:1005D000BDE8F883100000202DE9F041044600F04A
:1005E0008DF906465CB1002584F83450022084F869
:1005F00035002068016821F0010101600DE0012053
:10060000BDE8F08100F07AF9801B052805D920208B
:100610006065032084F83500F2E720680068C007B1
:10062000F0D12268116820480140D4E90103184341
:10063000D4E903363343184363691843A369184365
:10064000E3691843236A18430843616A042903D104
:10065000D4E90B1319430843106020684069666AA7
:1006600020F0070130460E43012704280CD1A06A70
:100670000643E06A40B12046FFF744FE20B1402027
:10068000606584F83570BAE7206846612046FFF758
:1006900025FE94F85C203F2191408160656584F8D7
:1006A00035700020ACE700003F8010F02DE9F041EC
:1006B0000446866D90F83400002501280DD00120F5
:1006C00084F8340094F835700020012F07D084F8A6
:1006D000340002252846BDE8F0810220FBE702270E
:1006E00084F8357060652046FFF736FE94F85C109C
:1006F0003F208840B0602068016841F01601016029
:100700002068416941F080014161206C20B120687E
:10071000016841F0080101602068016841F00101B1
:100720000160D7E72DE9F84FDFF890B100224FF0D4
:1007300001084FF0030A4FF00F090BF1040E00BF40
:100740000B6808FA02F42340A3426ED14D68022DD3
:1007500001D0122D0ED1D50800EB850CDCF820500D
:100760005607F70E09FA07F6B5430E69BE402E4349
:10077000CCF82060066855000F790AFA05FC07F0EE
:10078000030726EA0C06AF40374307604E68012E88
:1007900005D0022E03D0112E01D0122E0ED1876863
:1007A000CE6827EA0C07AE403E4386604668A64303
:1007B0000C79C4F30014944034434460C4688E68D8
:1007C00024EA0C04AE402643C6604C68E4006FD5B2
:1007D0003B4C256845F480452560246822F00305DC
:1007E00004F480440094374C2E19D6F80848950735
:1007F0002F0F09FA07F5AC43334DA84201D100256C
:100800002EE0324DA84201D1012529E0304DA84209
:1008100001D1022524E02F4DA84201D103251FE07C
:100820002D4DA84202D104251AE041E02B4DA842EB
:1008300001D1052514E02A4DA84201D106250FE07B
:10084000284DA84201D107250AE0274DA84201D131
:10085000082505E0254DA84201D1092500E00A251B
:10086000BD402543C6F80858DBF800405D464E6899
:100870009C43F60300D51C432C60DEF8004075460F
:100880004E689C43B60300D51C432C600B4D0835C5
:100890002C684E689C43F60200D51C432C60074D23
:1008A0000C352C684E689C43B60200D51C432C6066
:1008B000521C102AFFF444AFBDE8F88F003C014001
:1008C0004438024000300140000002400004024071
:1008D00000080240000C02400010024000140240D8
:1008E00000180240001C0240002002400024024088
:1008F0000AB1816170470904FBE700000148806884
:10090000704700000400002002488168027811440A
:1009100081607047040000200B4810B5016841F465
:1009200000710160016841F480610160016841F477
:1009300080710160032000F06FF8002000F006F8DD
:1009400000F024F8002010BD003C024070B50D4DB1
:1009500004464FF47A712878B1FBF0F00A4909682F
:10096000B1FBF0F000F01AFB48B9102C07D20022BE
:100970002146501E00F030F800206C6070BD012050
:1009800070BD000004000020100000200A4808B5D7
:10099000016841F480410160006800F480400090EB
:1009A0000548001F016841F080510160006800F0B7
:1009B0008050009008BD000044380240002809DB48
:1009C00000F01F02012191404009800000F1E02069
:1009D000C0F8001170470000F0B40E4B1B680C46C5
:1009E000C3F30223C3F10705042D00D90425191D03
:1009F000072901D2002300E0DB1E012606FA05F1DB
:100A0000491E214099409E40761E16403143F0BC5D
:100A100001F03CB80CED00E0064900F00702086860
:100A20004FF6FF03184040EA0220034A10430860D3
:100A3000704700000CED00E00000FA052DE9F843D6
:100A40001748016841F0805101600068154F00F0BF
:100A50008050012600903E64FFF750FF05464FF49A
:100A60007A78114C05E000BFFFF748FF401B404576
:100A70000DD86068C003F7D57E64FFF73FFF0546D9
:100A8000464607E0FFF73AFF401BB04202D9032079
:100A9000BDE8F88360688003F4D50020F8E7000023
:100AA0004038024000000E42007000402DE9F0473F
:100AB0000E46050065D0DFF81481D8F80000F7B2C3
:100AC00000F00F00B04207D288F80070D8F800009C
:100AD00000F00F00B04254D128683D4C810712D578
:100AE000400703D5206840F4E050206028780007D4
:100AF00003D5206840F4604020602068A96820F099
:100B0000F000084320602878C0072DD0304968687D
:100B10000839012812D0022813D0032811D00968FF
:100B2000890700292DDA216821F0030101432160A2
:100B3000FFF7E4FE814641F2883A0EE00968890336
:100B4000EFE709688901ECE7FFF7D8FEA0EB0901A0
:100B5000514502D90320BDE8F0872068696800F09C
:100B60000C00B0EB810FEFD1D8F80010404601F037
:100B70000F01B14207D90770006800F00F00B042C2
:100B800001D00120E7E72878400705D52068E9680B
:100B900020F4E050084320602878000706D520683C
:100BA000296920F4604040EAC100206000F036F876
:100BB0002168084AC1F30311515CC8400649086026
:100BC0000020FFF7C3FE0020C5E70000003C024004
:100BD00008380240241C0008100000200448054981
:100BE00000680968044AC1F38221515CC84070471B
:100BF0001000002008380240341C00080448054951
:100C000000680968044AC1F34231515CC84070472A
:100C10001000002008380240341C0008154810B5A8
:100C2000006810F00C02144813D01449042A0FD0A5
:100C3000082A0ED10F4C241F2268236802F03F02BD
:100C40005B0207D52068C0F38810A0FB010106E015
:100C5000084610BD2168C1F38811A1FB00010023E3
:100C6000FFF7C0FA2168C1F30141491C4900B0FBFC
:100C7000F1F010BD083802400024F40040787D01F6
:100C80002DE9F84F050076D02878DFF8F8B2BE4C91
:100C9000C00749D0DBF800105846C1F38101012993
:100CA00008D00068C0F3810002280AD1201D006826
:100CB000400206D52068800336D568680028E2D057
:100CC00032E06868B0F5803F10D0B0F5A02F206802
:100CD00010D020F480302060206820F48020206034
:100CE0006868A0B1FFF70AFE06460CE0206840F4F1
:100CF0008030F4E740F480202060F7E7FFF7FEFD46
:100D0000801B642873D820688003F7D50CE0FFF7B8
:100D1000F5FD064605E000BFFFF7F0FD801B6428E7
:100D2000F0D820688003F7D42878DFF86082800745
:100D30004FF000093ED5DBF80010584611F00C0FBB
:100D400009D00068C0F3810002280BD18D48001F34
:100D50000068400206D42068800715D5E86801289D
:100D600009D111E0E868B8B10120C8F80000FFF728
:100D7000C5FD064605E002E1FFF7C0FD801B022825
:100D8000C0D820688007F7D52068296920F0F800CE
:100D900040EAC10020600DE0C8F80090FFF7AEFD0A
:100DA000064604E0FFF7AAFD801B02281FD8206832
:100DB0008007F7D42878000722D5724E74486969F5
:100DC0006C3671B101210160FFF798FD074604E020
:100DD000FFF794FDC01B022809D830688007F7D5BB
:100DE0000EE0C0F80090FFF789FD074605E083E0BC
:100DF000FFF784FDC01B02287ED830688007F7D437
:100E00002878400768D5DFF87CA100270AF1380A66
:100E1000DAF80000C0000BD4DAF8001041F080517D
:100E2000CAF80010DAF80000012700F080500090A6
:100E3000584E3068C00510D4306840F4807030607F
:100E4000FFF75CFD009005E0FFF758FD0099401AA0
:100E5000022851D83068C005F6D54A4EA8686836D1
:100E600001280FD00528306810D020F00100306034
:100E7000306820F004003060A868B8B1FFF73EFD8C
:100E800000900FE0306840F00100F4E740F004000B
:100E90003060F7E7FFF732FD0099411A41F28830E0
:100EA000814264D830688007F4D50EE0FFF726FD54
:100EB000009007E0FFF722FD0099411A41F28830C7
:100EC000814254D830688007F4D42FB1DAF800108A
:100ED00021F08051CAF80010A869C0B3DBF80010F7
:100EE000C1F3810102294AD00228484607D0C8F838
:100EF0006000FFF703FD00E039E005463AE04746B1
:100F0000C8F86000FFF7FAFC064604E0FFF7F6FCBD
:100F1000801B02282BD820688001F7D4D5E907016F
:100F20000843A96A1C4A490802EB01416A6A41EA7E
:100F30008211084395F82C1040EA01611148001F06
:100F4000016001203866FFF7D9FC054605E014E092
:100F5000FFF7D4FC401B022809D820688001F7D590
:100F60000BE000BFFFF7CAFC401B022802D9032098
:100F7000BDE8F88F20688001F4D40020F8E7012054
:100F8000F6E70000083802400038024000004742FF
:100F9000800E4742007000400000FFFF10B5401E69
:100FA000B0F1807F01D3012010BD4FF0E0246061DB
:100FB0000F21601700F06AFD0020A061072020616A
:100FC000002010BD10B504460068416994F839202E
:100FD000C1F3C011212A0BD151B1416921F0800127
:100FE0004161206B08B1FFF7CDF9204600F00EFB00
:100FF0002068416994F83A20C1F38011222A0BD16C
:1010000051B1416921F040014161606B08B1FFF7C6
:10101000B9F9204600F0ECFA002010BD704700003E
:1010200070B5026804461068D168536910F00F0F5C
:1010300050D003F0010501F4907635435DD0C2072E
:1010400005D0CA0503D5E26B42F00102E263420714
:1010500005D5DA0703D0E26B42F00202E2638207B1
:1010600005D5DA0703D0E26B42F00402E26302071F
:1010700005D5DA0703D0E26B42F00802E263E26BC7
:10108000002A33D0800604D5880602D5204600F019
:10109000C6FA20684069E16BC0F38010090700D4EC
:1010A00028B3204600F0A4FA2068416949061AD501
:1010B000416921F040014161606BA0B11B490165AC
:1010C000606BFFF7A6F9002810D0606B016DBDE8DA
:1010D00070400847830610D58B060ED52046BDE824
:1010E000704000F09CBA2046FFF798FF70BD204684
:1010F000FFF794FF0020E06370BD030606D50B06E2
:1011000004D52046BDE8704000F02ABC4006F3D567
:101110004806F1D5D168204621F04001D160202158
:1011200084F8391000F03DF970BD00005115000839
:1011300070B5040004D094F83900002510B106E021
:10114000012070BD84F83850204600F023F8242098
:1011500084F839002068C16821F40051C16020463C
:1011600000F0A8FA2068016921F49041016120682B
:10117000416921F02A0141612068C16841F40051B0
:10118000C160E563202084F8390084F83A0000202B
:1011900070BD000070B586B0064614216846FFF7A2
:1011A00059F825493068884243D124480025016810
:1011B00041F010010160006800F0100005901F4828
:1011C0001438016841F0010101600068694600F0CF
:1011D000010005904FF4C0600090022001900120B2
:1011E000029003200390072004901548FFF79AFA15
:1011F000154C144820604FF00060C4E9010540140C
:10120000C4E9035080106561C4E906504002C4E996
:1012100008052046FFF7E0F908B1FFF7B2F874635C
:10122000002203212520A663FFF7D6FB2520FFF728
:10123000C5FB06B070BD00000010014044380240FC
:10124000000002404064024058040020F8B5044603
:1012500090F83A0020283CD1C1B3BAB394F83800D2
:10126000012836D0012084F83800A162A28500252B
:10127000E563222084F83A00636B1748D863636BF8
:1012800016481864636B1648D864606B134605658E
:101290000846666B216802463046091DFFF706FACC
:1012A000206801684168009184F83850C16841F4B1
:1012B0008071C1602068416941F00101416120688D
:1012C000416941F0400141610020F8BDFFE7012084
:1012D000FBE70220F9E70000AB150008E71500085E
:1012E00061150008704770472DE9F843044690F8EF
:1012F00039001F4616460D46202850D1A5B19EB193
:1013000094F8380001284AD0012084F838004FF0C2
:101310000008C4F83C80212084F83900FFF7EEFA79
:10132000A6848146E68426E00120BDE8F883E08CAF
:10133000401EE084A0684B46B0F5805F4FF000028D
:101340004FF080012046009703D000F03AFBE8B947
:101350000DE000F036FBC8B928882168C0F308000A
:101360004860206908B16D1C05E0AD1C03E02168F0
:1013700015F8010B4860E08C0028D8D14B460022BC
:1013800040212046009700F01CFB08B10320CCE769
:10139000202084F8390084F838800020C5E7022036
:1013A000C3E77047FEE70000094808B5016841F44B
:1013B000800101600068002200F480000090114666
:1013C0003A20FFF709FBBDE808403A20FFF7F6BADC
:1013D0003038024030B587B014216846FEF73AFF36
:1013E0001148016841F080010160016801F080014D
:1013F0000591016841F0010101600068012200F0DF
:1014000001000A4D9402059021462846FFF770FA24
:1014100001210220CDE90210CDE9004169462846AC
:10142000FFF780F907B030BD30380240001C0240A1
:101430000C4810B50A4901604FF4E13141600021C8
:1014400081600C22C160C0E904128161C161FFF7B3
:101450006FFE002803D0BDE81040FEF792BF10BD1C
:101460000010014018040020FEE7704770477047E5
:10147000FFF74ABA70B592B030216846FEF7EAFE2F
:1014800014210CA8FEF7E6FE1A480025016841F079
:1014900080510160006800F080501190164801688A
:1014A00041F4404101600068022400F44040119082
:1014B00001200090000401908001CDE906400F2634
:1014C0000896D820CDE9090404200B906846FFF760
:1014D000D7FBFFF7B3FA4FF4A050CDE90E50E0026E
:1014E000CDE90C64109005210CA8FFF7DFFA12B0CB
:1014F00070BD000040380240007000401048016894
:1015000041F4700101600F48016841F00101016080
:101510000C4A00210832116002680B4B1A4002602D
:10152000031D0A4A1A60026822F4802202600548FC
:101530000C3001600249580680390860704700008D
:1015400088ED00E000380240FFFFF6FE1030002476
:1015500010B5806B0021C185C184FFF75FFD10BD10
:1015600070B5846B2068406994F83910C0F3C010DE
:101570000025212904D118B1E584204600F046F861
:101580002068406994F83A10C0F38010222904D1F1
:1015900018B1E585204600F02BF8E06B40F0100014
:1015A000E0632046FFF73AFD70BD10B50146806B41
:1015B00009680968C90513D40021C1850168CA6892
:1015C00022F48072CA6001684A6922F001024A610D
:1015D00001684A6922F040024A61202180F83A10ED
:1015E000FFF780FE10BD10B5806BFFF77CFE10BDCD
:1015F0000168CA6822F49072CA6001684A6922F0E0
:1016000001024A61202180F83A1070470168CA68D7
:1016100022F0C002CA60202180F83910704710B54E
:1016200090F83A10222901D0022010BD8168B1F54E
:10163000805F11D00169002901681FD0496801F05D
:101640007F03816A4A1C82620B70C18D491E0904A6
:10165000090CC18518D02BE00269816A002A026852
:10166000526805D0D2B20A80816A491C8162ECE7D7
:10167000C2F308020A80816A891CF7E74A68816A16
:101680004B1C83620A70E0E70168CA6822F02002FE
:10169000CA600168CA6822F48072CA6001684A6937
:1016A00022F001024A61202180F83A10FFF71AFE69
:1016B000002010BD2DE9F041044600680169E26890
:1016C00021F44051114301612169A068E269084396
:1016D0006169114322680843D16849F20C63994358
:1016E0000143D16020684169A26921F4407111432E
:1016F0004161E2696425B2F5004F97489749226835
:101700004FF032083FD08A4201D082427CD1FFF7AD
:1017100075FA00EBC00101EB001061688900B0FBB5
:10172000F1F6FFF76BFA00EBC00101EB0010616806
:101730008900B0FBF1F0B0FBF5F06FF01801484301
:1017400006EB800108EB0110B0FBF5F000F0F006AD
:10175000FFF754FA00EBC00101EB0010616889004B
:10176000B0FBF1F0B0FBF5F006EB0016FFF746FA20
:1017700000EBC00101EB001061688900B0FBF1F7DC
:10178000FFF73CFAD2E08A4201D082423DD1FFF716
:1017900035FA00EBC00101EB001061684900B0FBB5
:1017A000F1F0B0FBF5F00601FFF728FA00EBC001FD
:1017B00001EB001061684900B0FBF1F7FFF71EFA7A
:1017C00000EBC00101EB001061684900B0FBF1F0D3
:1017D000B0FBF5F06FF01801484307EB800108EB10
:1017E000C100B0FBF5F000F0F80006EB4006FFF793
:1017F00005FA00EBC00101EB001061684900B0FB85
:10180000F1F7FFF7FBF93CE055E0FFF7E7F900EBF4
:10181000C00101EB001061684900B0FBF1F0B0FBC2
:10182000F5F00601FFF7DAF900EBC00101EB00105B
:1018300061684900B0FBF1F7FFF7D0F900EBC00198
:1018400001EB001061684900B0FBF1F0B0FBF5F06E
:101850006FF01801484307EB800108EBC100B0FBB3
:10186000F5F000F0F80006EB4006FFF7B7F900EBE3
:10187000C00101EB001061684900B0FBF1F7FFF710
:10188000ADF900EBC00101EB001061684900B0FB4D
:10189000F1F0B0FBF5F06FF01801484307EB800161
:1018A00008EBC100B0FBF5F000F007002168304400
:1018B0008860BDE8F081FFF791F900EBC00101EB12
:1018C000001061688900B0FBF1F6FFF787F900EBC3
:1018D000C00101EB001061688900B0FBF1F0B0FBC2
:1018E000F5F06FF01801484306EB800108EB01109A
:1018F000B0FBF5F000F0F006FFF770F900EBC00167
:1019000001EB001061688900B0FBF1F0B0FBF5F06D
:1019100006EB0016FFF762F900EBC00101EB0010C7
:1019200061688900B0FBF1F7FFF758F900EBC001DF
:1019300001EB001061688900B0FBF1F0B0FBF5F03D
:101940006FF01801484307EB800108EB0110B0FB72
:10195000F5F000F00F00A9E700140140001001406D
:1019600090F83910212901D0022070478168B1F523
:10197000805F016A0BD04A1C0262026809785160DC
:10198000C18C491E0904090CC1840ED017E00988D6
:101990000268C1F30801516001690029016A02D09F
:1019A000491C0162ECE7891CFBE70168CA6822F068
:1019B0008002CA600068C16841F04001C160002037
:1019C00070472DE9F041984617460E460446069D9D
:1019D0001DE0681C1BD02DB1FEF790FFA0EB0800A6
:1019E000A84214D92068C16821F4D071C160206870
:1019F000416921F001014161202084F8390084F817
:101A00003A00002084F838000320BDE8F081206807
:101A1000006836EA000004D00020B842D9D0002087
:101A2000F3E70120F9E700000C4808B500680168F9
:101A3000C943C9060DD40168406800900748FFF704
:101A4000C1FA074901208202087006490348FFF7DE
:101A5000FDFBBDE808400148FFF7E2BA180400208A
:101A60000000002018000020FEE700000FB4054B26
:101A700010B503A9044A029800F027F810BC5DF8DD
:101A800014FB0000A11B0008140000200907090E28
:101A9000002804DB00F1E02080F80014704700F01B
:101AA0000F0000F1E02080F8141D704702E008C824
:101AB000121F08C1002AFAD170477047002001E0C8
:101AC00001C1121F002AFBD170472DE9F84F99463A
:101AD000924688460546002706E025280AD051464A
:101AE0004A4690476D1C7F1C28780028F5D138465F
:101AF000BDE8F88F002315F8011F18462E2915D1CF
:101B000015F8011F04232A290DD06FF02F02297820
:101B1000A1F13004092C09D800EB800002EB400051
:101B200008446D1CF3E758F8040B6D1C2A78002A52
:101B3000DDD0632A07D0732A0FD0104651464A469B
:101B400090477F1C2AE018F8042B8DF80020002114
:101B50008DF801106E46012103E058F8046B4FF038
:101B6000FF315A074FF0000401D409E0641C84429D
:101B70000BDA8C42FADB325D002AF7D105E0641CF7
:101B80008C42FCDB305D0028F9D1274404E016F8D4
:101B9000010B51464A469047641EF8D26D1CA3E7DC
:101BA00013B54FF6FF73012269460248FFF79CFB0D
:101BB0001CBD000018040020FEF7AEFEFFF75AFC23
:101BC000FFF708FCFFF7F0FBFFF732FC0C4800685A
:101BD000C16841F01001C1604FF4806209490848B2
:101BE000FFF734FB08A0FFF741FF0A4C00252078DF
:101BF0000028FCD02570034907A0FFF737FFF6E760
:101C0000180400201800002068656C6C6F2070704C
:101C10000A0000000000002025730A0000061016CC
:101C2000000610160000000000000000010203047E
:101C30000607080900000000010203045C1C0008FC
:101C40000000002018000000AC1A0008741C0008F6
:101C500018000020A0080000BC1A000800000000C6
:101C60000100000010000000000000000024F4004B
:041C70000000000070
:04000005080001AD41
:00000001FF
